:020000040800F2
:10000000FC34012089010008E5010008E501000831
:10001000E5010008E5010008E50100080000000016
:10002000000000000000000000000000E5010008E2
:10003000E501000800000000E5010008E5010008F6
:10004000E5010008E5010008E5010008E5010008F8
:10005000E5010008E5010008E5010008E5010008E8
:10006000E5010008E5010008E5010008E5010008D8
:10007000E5010008E5010008E5010008E5010008C8
:10008000E5010008E5010008E5010008E5010008B8
:10009000E5010008E5010008E5010008E5010008A8
:1000A000E5010008E5010008E5010008E501000898
:1000B000410E0008E5010008E5010008E50100081F
:1000C000E5010008E5010008E5010008E501000878
:1000D000E5010008E5010008E5010008E501000868
:1000E000E5010008E5010008E5010008E501000858
:1000F000E5010008E5010008E5010008E501000848
:10010000E5010008E5010008E5010008E501000837
:10011000E5010008E5010008E5010008E501000827
:10012000E5010008E5010008E5010008E501000817
:10013000E5010008E5010008E5010008E501000807
:10014000E5010008E5010008E5010008E5010008F7
:10015000F90E0008E5010008E5010008E5010008C6
:10016000E5010008E5010008E5010008E5010008D7
:10017000E5010008E5010008E5010008E5010008C7
:10018000E5010008E501000880B582B000AF104B22
:100190007B60104B3B6007E03B681A1D3A607A6851
:1001A000111D796012681A603A680B4B9A42F3D3BA
:1001B0000A480B494FF000028842B8BF40F8042BB0
:1001C000FFF6FAAF00F09AF80837BD4680BD00BFD1
:1001D000083300080000002000000020000000207C
:1001E000FC2C012080B400AFFEE700BF2DE9B04336
:1001F00086B000AFF880B9807A803B8000237B61B5
:1002000070E0FB88184602F0FBFB04460D467B8835
:10021000184602F0F5FB80468946786902F0F0FB4B
:1002200002460B461046194601F012F902460B46EB
:100230004046494602F04AFC02460B462046294603
:1002400002F092FA02460B461046194602F000FFF1
:1002500003463B61BB88184602F0D2FB04460D46BC
:100260003B88184602F0CCFB02460B461046194666
:100270004FF00002204B02F029FC02460B4690464C
:100280009946786902F0BCFB02460B4610461946B7
:1002900001F018F902460B464046494602F016FCAA
:1002A00002460B462046294602F05CFA02460B46FF
:1002B0001046194602F0CCFE0346FB60386902F096
:1002C00017FF03469CB2F86802F012FF03469AB289
:1002D00097F83030204611461A4600F05FFC7B69E3
:1002E00001337B617B69B3F5487F8ADB1846183799
:1002F000BD46BDE8B08300BF0000E03F80B582B0DE
:1003000002AF00F03DF900F0E5FB002000F022FC18
:10031000FF2300936420642146223223FFF766FF07
:10032000FEE700BF80B483B000AF78600B46FB707F
:10033000FB78002B06D0094B084A116B7A680A43F8
:100340001A6306E0054B054A116B7A68D2430A40EE
:100350001A630C37BD465DF8047B704700380240D5
:1003600080B483B000AF78600B46FB70FB78002B45
:1003700006D0094B084A116C7A680A431A6406E0F1
:10038000054B054A116C7A68D2430A401A640C374F
:10039000BD465DF8047B70470038024080B483B0EE
:1003A00000AF78600B46FB70FB78002B06D0094B42
:1003B000084A516C7A680A435A6406E0054B054ABC
:1003C000516C7A68D2430A405A640C37BD465DF8D6
:1003D000047B70470038024080B487B000AF78607B
:1003E000396000237B6100233B610023FB60002315
:1003F0007B6176E07B69012202FA03F33B613B6893
:100400001A683B691340FB60FA683B699A4265D100
:100410007B681A687B695B00032101FA03F3DB4305
:100420001A407B681A607B681A683B681B7919461A
:100430007B695B0001FA03F31A437B681A603B682F
:100440001B79012B03D03B681B79022B2ED17B68D3
:100450009A687B695B00032101FA03F3DB431A40CE
:100460007B689A607B689A683B685B7919467B6910
:100470005B0001FA03F31A437B689A607B685A6851
:100480007B699BB2012101FA03F3DB431A407B68CD
:100490005A607B685A683B689B7919467B699BB2B6
:1004A00001FA03F39BB21A437B685A607B68DA68EF
:1004B0007B699BB25B00032101FA03F3DB431A4023
:1004C0007B68DA607B68DA683B68DB7919467B69B0
:1004D0005B0001FA03F31A437B68DA607B6901333E
:1004E0007B617B690F2B85D91C37BD465DF8047B8A
:1004F000704700BF80B485B000AF786013460A46ED
:100500007A807B700023FB600023BB607A787B8855
:1005100003F007039B0002FA03F3FB607B88DB0810
:100520009BB21A467B88DB089BB219467B68083170
:1005300053F821107B8803F007039B000F2000FA7B
:1005400003F3DB4319407B68083243F822107B88B1
:10055000DB089BB21A467B68083253F82220FB68FE
:100560001343BB607B88DB089BB21A467B6808326A
:10057000B96843F822101437BD465DF8047B704714
:1005800080B500AF114B114A126842F001021A60A7
:100590000E4B00229A600D4A0C4B1B6823F08473AB
:1005A00023F480331360094B094A5A60074B074A0A
:1005B000126822F480221A60044B0022DA6000F0F4
:1005C0000BF8044B4FF000629A6080BD0038024087
:1005D0001030002400ED00E080B483B000AF0023B1
:1005E0007B6000233B60354B344A126842F4803212
:1005F0001A60324B1B6803F400333B607B680133A5
:100600007B603B68002B03D17B68B3F5A06FF0D112
:100610002A4B1B6803F40033002B02D001233B60FC
:1006200001E000233B603B68012B42D1234B234A6E
:10063000126C42F080521A64214B214A126842F433
:1006400080421A601D4B1D4A92689A601B4B1B4AE0
:10065000926842F400429A60184B184A926842F439
:10066000A0529A60154B174A5A60144B134A1268ED
:1006700042F080721A6000BF104B1B6803F00073D9
:10068000002BF9D0104B40F205621A600B4B0B4A5D
:10069000926822F003029A60084B084A926842F07E
:1006A00002029A6000BF054B9B6803F00C03082B05
:1006B000F9D10C37BD465DF8047B70470038024025
:1006C0000070004008544007003C024080B483B0F2
:1006D00000AF78607B681B6823F001027B681A60BA
:1006E0007B6800221A607B6800225A607B680022C7
:1006F0009A607B680022DA607B6800221A617B685E
:1007000021225A617A68454B9A4203D1444B3D22DB
:100710009A607EE07A68434B9A4204D1404B4FF492
:1007200074629A6075E07A683F4B9A4204D13C4B00
:100730004FF474129A606CE07A683C4B9A4204D190
:10074000374B4FF074629A6063E07A68384B9A4294
:1007500003D1334B374ADA605BE07A68364B9A4212
:1007600003D12F4B354ADA6053E07A68344B9A4212
:1007700003D12B4B334ADA604BE07A68324B9A4212
:1007800004D1274B4FF03D52DA6042E07A682F4B9C
:100790009A4203D12E4B3D229A603AE07A682D4B63
:1007A0009A4204D12A4B4FF474629A6031E07A681D
:1007B000294B9A4204D1264B4FF474129A6028E0D8
:1007C0007A68264B9A4204D1214B4FF074629A60AA
:1007D0001FE07A68224B9A4203D11D4B154ADA601A
:1007E00017E07A681F4B9A4203D1194B134ADA601B
:1007F0000FE07A681C4B9A4203D1154B114ADA601C
:1008000007E07A68194B9A4203D1114B4FF03D52E1
:10081000DA600C37BD465DF8047B7047106002401B
:100820000060024028600240406002405860024080
:10083000706002403D00002088600240400F0020B0
:10084000A060024000003D20B860024010640240F9
:100850000064024028640240406402405864024040
:100860007064024088640240A0640240B8640240A0
:1008700080B485B000AF786039600023FB607B688E
:100880001B68FB60FA68244B1340FB603B681A68E6
:100890003B68DB681A433B685B691A433B689B69AA
:1008A0001A433B68DB691A433B681B6A1A433B687F
:1008B0005B6A1A433B689B6A1A433B685B6B1A434B
:1008C0003B689B6B1343FA681343FB607B68FA68D1
:1008D0001A607B685B69FB60FB6823F00703FB60C1
:1008E0003B68DA6A3B681B6B1343FA681343FB608F
:1008F0007B68FA685A613B681A697B685A603B6892
:100900005A687B689A603B689A687B68DA6014373B
:10091000BD465DF8047B70473F801CF080B483B017
:1009200000AF78600B46FB70FB78002B06D07B682D
:100930001B6843F001027B681A6005E07B681B6856
:1009400023F001027B681A600C37BD465DF8047B1A
:10095000704700BF80B485B000AFF860B96013463F
:10096000FB71BB6803F08003002B0FD0FB79002BD9
:1009700006D0FB685B6943F08002FB685A6105E0C2
:10098000FB685B6923F08002FB685A61BB68802BBF
:1009900014D0FB79002B08D0FB681A68BB6803F001
:1009A0001E031A43FB681A6008E0FB681A68BB68FC
:1009B00003F01E03DB431A40FB681A601437BD4680
:1009C0005DF8047B704700BF80B487B000AF7860EB
:1009D00039600023FB750023FB600023BB607A684D
:1009E000224B9A4202D8224B3B6101E0214B3B61F2
:1009F0003B6823F0F02323F0C313002B0AD03B689D
:100A0000DB0A03F01E03FB607B681A68FB68134077
:100A1000BB6004E07B685B6903F08003BB603B68FC
:100A200003F00053002B03D03B695B68FB6002E0DE
:100A30003B691B68FB60FB6823F0F02323F0821303
:100A4000FB60FA683B681340002B05D0BB68002BA5
:100A500002D00123FB7501E00023FB75FB7D1846E6
:100A60001C37BD465DF8047B704700BF0F64024031
:100A7000006002400064024080B485B000AF78603E
:100A800039607A68104B9A4202D8104BFB6001E043
:100A90000F4BFB603B6803F00053002B07D03B6813
:100AA00023F0F02323F08213FA68D36006E03B685A
:100AB00023F0F02323F08213FA6893601437BD46C5
:100AC0005DF8047B704700BF0F6402400060024085
:100AD0000064024080B582B000AF1B4B00221A8038
:100AE000194B00225A60184B00229A600023BB80E9
:100AF00017E00023FB800DE0BA8813469B001344E7
:100B00009B011A44FB881344104A0021D154FB88EE
:100B10000133FB80FB88B3F5A07FEDD9BB8801339F
:100B2000BB80BB88EF2BE4D900F05EF800F0B0F892
:100B300000F03EF900F010F9054B1A68024B9A607C
:100B40000837BD4680BD00BF000000200C0000201B
:100B50008864024080B584B000AF0346FB71002377
:100B6000BB8114E00023FB810AE0F989BA89FB7993
:100B7000084611461A4600F011F8FB890133FB8143
:100B8000FB89B3F5A07FF0D3BB890133BB81BB895F
:100B9000EF2BE7D91037BD4680BD00BF80B483B0CE
:100BA00000AF13460246FA800A46BA80FB70FB8803
:100BB000B3F5A07F01D30023FB80BB88EF2B01D9C5
:100BC0000023BB80BA8813469B0013449B011A4440
:100BD000FB881344034AF978D1540C37BD465DF8BD
:100BE000047B70470C00002080B582B000AF10205D
:100BF0000121FFF797FB4FF47F433B6001233B71DB
:100C00000023BB710123FB7103237B713B461E480C
:100C10001946FFF7E1FB1C4B4FF47F425A83022039
:100C20000121FFF77FFB4FF400633B6002233B7120
:100C300003237B710023BB710123FB713B461348E7
:100C40001946FFF7C9FB11480B210122FFF752FC9F
:100C500002200121FFF766FB4FF480533B60012324
:100C60003B710023BB710123FB7103237B713B4666
:100C700006481946FFF7B0FB044B4FF480521A8325
:100C80000837BD4680BD00BF00100240000402408E
:100C900080B588B000AF01200121FFF77FFB0B2357
:100CA000BB610023BB820023BB830023FB8207F1CF
:100CB00014032848194600F0A3F901200121FFF789
:100CC0004FFB40F66B23BB610023BB820023BB8339
:100CD0000023FB8207F114034FF08040194600F017
:100CE0008FF960233B8001237B804FF4D273BB607C
:100CF0000223BB813B464FF08040194600F02AFAA0
:100D00004FF08040082100F011FB60233B8001235D
:100D10007B804FF4A073BB600223BB813B464FF046
:100D20008040194600F09CFA4FF08040082100F006
:100D300019FB0848012100F0CDF94FF08040012156
:100D400000F0C8F94FF08040012100F0E3F92037AE
:100D5000BD4680BD0000014080B582B000AF1348A1
:100D600010210122FFF7F6FD44233B7100237B7124
:100D70000023BB710123FB713B1D184600F0E2F814
:100D80004FF080400821012200F00AFB1C233B7138
:100D900000237B710023BB710123FB713B1D1846AF
:100DA00000F0D0F80837BD4680BD00BF886402401F
:100DB00080B590B000AF4FF480000121FFF7B2FA88
:100DC0001B480021FFF7AAFD1948FFF77FFC4FF0F1
:100DD00040637B60174BBB60174BFB6040233B615C
:100DE00040F241137B610023BB614FF48063FB61E0
:100DF00000233B6200237B620023BB624FF440333D
:100E0000FB6200233B6301237B630023BB6300235E
:100E1000FB633B1D06481946FFF72AFD07484FF4C0
:100E20008071012200F0F0FA4037BD4680BD00BF5E
:100E300088640240151002400C00002000000140B0
:100E400080B500AF4FF08040082100F0CDFA254B6F
:100E50001B8801339AB2234B1A80224B1B88B3F5AF
:100E6000037F05D91F4B00221A801F4A1D4B5A6071
:100E70001C4B1B88012B04D81C4B4FF480525A8307
:100E800003E01A4B4FF480521A83164B1B88232B16
:100E900027D9144B1A8840F202239A4221D8144BC6
:100EA000104A92681A60124B0E4A5268DA60114B6F
:100EB000104A128892B242F0010292B21A800C4B90
:100EC0000B4A126842F001021A60064B1B8803F0BD
:100ED0000103002B05D0034B5B6803F24112014B69
:100EE0005A6080BD000000200C0000200004024079
:100EF000886402400000014080B500AF0D480E49F3
:100F0000FFF762FD0346002B12D00A480A49FFF79B
:100F1000B3FD0A4B094A128892B222F0010292B242
:100F20001A80044B00221A60054B4FF47F425A830B
:100F300080BD00BF8864024000880020000001409E
:100F40000010024080B485B000AF78600023FB73CE
:100F50000023BB730F237B737B68DB78002B37D0B8
:100F6000254BDB68DB4303F4E0631B0AFB73FB7B6D
:100F7000C3F10403BB737A7BFB7B42FA03F37B73FD
:100F80007B685B781A46BB7B02FA03F3FB737B68D2
:100F90009A787B7B1340DAB2FB7B1343FB73FB7BBA
:100FA0001B01FB73154A7B681B781344FA7B83F89B
:100FB0000023124B7A6812785209D2B27968097804
:100FC00001F01F01012000FA01F143F822100EE0A8
:100FD0000A4B7A6812785209D2B27968097801F01E
:100FE0001F01012000FA01F1203243F822101437CA
:100FF000BD465DF8047B704700ED00E000E100E0D5
:1010000080B485B000AF786039600023FB817B68D5
:101010001B88FB817A68284B9A4213D07A68274B49
:101020009A420FD07B68B3F1804F0BD07A68244B83
:101030009A4207D07A68234B9A4203D07A68224BAF
:101040009A4208D1FB8923F07003FB813B685A88E0
:10105000FB891343FB817A681C4B9A420CD07A6857
:101060001B4B9A4208D0FB8923F44073FB813B68F9
:101070001A89FB891343FB817B68FA891A803B68D4
:101080005A687B68DA623B681A887B681A857A68D6
:10109000094B9A4203D07A68084B9A4204D13B68C4
:1010A0009B7A1A467B681A867B6801229A821437DB
:1010B000BD465DF8047B704700000140000401401C
:1010C0000004004000080040000C004000100040F8
:1010D0000014004080B483B000AF78600B46FB7012
:1010E000FB78002B08D07B681B889BB243F0800301
:1010F0009AB27B681A8007E07B681B889BB223F05A
:1011000080039AB27B681A800C37BD465DF8047B79
:10111000704700BF80B483B000AF78600B46FB70AF
:10112000FB78002B08D07B681B889BB243F001033F
:101130009AB27B681A8007E07B681B889BB223F019
:1011400001039AB27B681A800C37BD465DF8047BB8
:10115000704700BF80B485B000AF7860396000236D
:101160007B810023FB810023BB817B681B8C9BB2AE
:1011700023F480739AB27B681A847B681B8CFB8192
:101180007B689B88BB817B689B8B7B817B8923F001
:1011900070037B817B8923F003037B813B681A8882
:1011A0007B8913437B81FB8923F40073FB813B68BC
:1011B0009B891B029AB2FB891343FB813B685B88C6
:1011C0001B029AB2FB891343FB817A68224B9A4235
:1011D00003D07A68214B9A422BD1FB8923F4006318
:1011E000FB813B68DB891B029AB2FB891343FB81BD
:1011F000FB8923F48063FB813B689B881B029AB2C6
:10120000FB891343FB81BB8923F48053BB81BB89DA
:1012100023F40053BB813B681B8A1B019AB2BB8934
:101220001343BB813B685B8A1B019AB2BB891343A2
:10123000BB817B68BA899A807B687A899A833B688C
:101240009A687B68DA637B68FA891A841437BD462A
:101250005DF8047B704700BF0000014000040140BE
:1012600080B485B000AF786039600023BB81002373
:101270007B810023FB817B681B8C9BB223F4805312
:101280009AB27B681A847B681B8C7B817B689B8805
:10129000FB817B689B8BBB81BB8923F4E043BB81D3
:1012A000BB8923F44073BB813B681B881B029AB245
:1012B000BB891343BB817B8923F400537B813B684B
:1012C0009B891B039AB27B8913437B813B685B88B4
:1012D0001B039AB27B8913437B817A68114B9A4234
:1012E00003D07A68104B9A420AD1FB8923F48043D9
:1012F000FB813B681B8A9B019AB2FB891343FB81EC
:101300007B68FA899A807B68BA899A833B689A6875
:101310007B681A647B687A891A841437BD465DF845
:10132000047B7047000001400004014080B485B098
:1013300000AF78600B467B800023FB817B689B8B32
:10134000FB81FB8923F00803FB81FA897B88134327
:10135000FB817B68FA899A831437BD465DF8047B6C
:10136000704700BF80B485B000AF78600B467B80CB
:101370000023FB817B689B8BFB81FB8923F400634B
:10138000FB817B881B029AB2FB891343FB817B683C
:10139000FA899A831437BD465DF8047B704700BF15
:1013A00080B483B000AF786013460A467A807B70C1
:1013B0007B78002B08D07B689B899AB27B8813438B
:1013C0009AB27B689A8109E07B689B899AB27B8894
:1013D000DB439BB213409AB27B689A810C37BD46BF
:1013E0005DF8047B704700BF80B483B000AF7860C5
:1013F0000B467B807B88DB439AB27B681A820C3772
:10140000BD465DF8047B704780B483B000AF786060
:1014100013460A467A807B707B78002B08D07B6865
:101420009B899AB27B8813439AB27B689A8109E0C0
:101430007B689B899AB27B88DB439BB213409AB24C
:101440007B689A810C37BD465DF8047B704700BF0E
:1014500070B51A4E21F00044B44286B002460B46E5
:1014600019DD174DAC4203DD01F07CF906B070BD0B
:1014700002AA00F071F800F00304012CDDE902017A
:10148000DDE9042313D0022C0BD0A4B10124009475
:1014900000F082FFEAE70022002300F07DFA06B0A8
:1014A00070BD00F079FA01F1004106B070BD009402
:1014B00000F072FFF7E700F06FFAD7E7FB21E93F92
:1014C000FFFFEF7F70B5224E21F00044B44286B09A
:1014D00002460B461ADD1F4DAC4203DD01F042F916
:1014E00006B070BD02AA00F037F800F00300012832
:1014F0001DD0022812D008B3DDE90201DDE9042382
:1015000000F04AFA01F1004106B070BD00230093DB
:101510000022002300F040FF06B070BD0124DDE989
:101520000201DDE90423009400F036FFEAE7DDE97B
:101530000201DDE9042300F02FFAD1E70124DDE9FF
:101540000201DDE90423009400F026FFC8E700BF94
:10155000FB21E93FFFFFEF7F2DE9F04F964B21F094
:1015600000469E4291B004460D468B46904640F39D
:101570008180924B9E4226DC002985A3D3E900237B
:1015800040F3A08101F0EEF88D4B9E4204460D46DB
:1015900000F0858080A3D3E9002301F0E3F8024640
:1015A0000B46C8E900232046294601F0DBF87AA360
:1015B000D3E9002301F0D6F80127C8E90201384633
:1015C00011B0BDE8F08F7F4B9E4240F385807E4B8B
:1015D0009E425ADC4FEA2659A9F21649A6EB095554
:1015E0002946044601F00CFD01F00AFA06460F46B2
:1015F00002460B4620462946CDE90A6701F0B2F8BB
:101600000022724B01F062FA0F46064601F0F8FC28
:1016100001F0F6F902460B4604460D4630463946BF
:10162000CDE90C4501F09EF80022684B01F04EFA1E
:1016300000220023CDE90E0101F0B0FC002800F0EB
:101640006D81002320462946002201F0A7FC0028D6
:1016500014BF0123022302225D49009201914A46F0
:101660000AA8414600F0C0FABBF1000FC0F2488161
:10167000074606E000220023C8E90045C8E9022326
:101680000027384611B0BDE8F08F02460B4601F046
:1016900069F80027C8E90201C8E90001F1E740A3A1
:1016A000D3E9002301F05EF83FA3D3E90023044609
:1016B0000D4601F057F802460B46C8E900232046C4
:1016C000294601F04FF838A3D3E9002301F04AF886
:1016D0000127C8E90201D4E700F016FF34A3D3E9DB
:1016E000002304460D4601F0F1F90022394B01F0C8
:1016F0003BF801F085FC074601F082F924A3D3E909
:101700000023CDE9060101F0E1F902460B4620462F
:10171000294601F027F820A3D3E90023CDE90201EF
:10172000DDE9060101F0D2F91F2FCDE90401DDE961
:10173000020153DC284B7A1E53F82230B3424DD0BD
:10174000DDE9042301F00EF804460D46C8E9004522
:1017500022462B46DDE9020101F004F8DDE904230D
:1017600001F000F8BBF1000FC8E9020189DA264652
:1017700001F1004305F100447F42C8F80060C8F859
:101780000440C8F80800C8F80C307AE7AFF30080CE
:1017900000004054FB21F93F3163621A61B4D03D2F
:1017A0000000601A61B4D03D7370032E8A19A33B08
:1017B00083C8C96D305FE43FFB21E93F7BD902401C
:1017C000FB21F93FFB213941FFFFEF7F0000704112
:1017D000B03100080000E03F30310008DDE90423AB
:1017E00000F0C0FF3615C1F30A53F31A04460D4644
:1017F000102BC8E90045ABDD5BA3D3E90023DDE98D
:10180000060101F063F904460D4622462B46DDE948
:10181000020100F0A7FFCDE90801DDE90823DDE9B9
:10182000020100F09FFF22462B4600F09BFF50A3D1
:10183000D3E9002304460D46DDE9060101F046F92F
:1018400022462B4600F08EFFCDE90401DDE904239A
:10185000DDE9080100F086FFC1F30A53F61A0446D9
:101860000D46312EC8E9004578DD43A3D3E90023B6
:10187000DDE9060101F02AF904460D4622462B4611
:10188000DDE9080100F06EFFCDE90201DDE9022388
:10189000DDE9080100F066FF22462B4600F062FFFA
:1018A00037A3D3E9002304460D46DDE9060101F024
:1018B0000DF922462B4600F055FFCDE90401DDE984
:1018C00002013DE700F050FF314B9E4204460D46B9
:1018D00026D02DA3D3E9002300F046FF02460B4695
:1018E000C8E900232046294600F03CFF26A3D3E99F
:1018F000002300F039FF4FF0FF37C8E90201C0E6CE
:10190000D8F80420D8F80C3002F1004203F100436B
:101910004742C8F80420C8F80C30B2E603239AE620
:1019200011A3D3E9002300F01FFF11A3D3E9002383
:1019300004460D4600F018FF02460B46C8E9002396
:101940002046294600F00EFF09A3D3E9002300F04A
:101950000BFF4FF0FF37C8E9020192E6DDE90823EB
:10196000CDE90223F4E600BF0000601A61B4D03D67
:101970007370032E8A19A33B0000002E8A19A33B23
:10198000C14920259A837B393163621A61B4D03D05
:10199000FB21F93FAFF300802DE9F04F21F0004922
:1019A000B9F1795F85B006460F4692469B466BDAE1
:1019B00001F026FB002800F0EB8032463B46304623
:1019C000394601F083F876A3D3E9002304460D4697
:1019D00001F07CF874A3D3E9002300F0C5FE224691
:1019E0002B4601F073F872A3D3E9002300F0BAFE8E
:1019F00022462B4601F06AF86FA3D3E9002300F0DA
:101A0000B3FE22462B4601F061F86DA3D3E9002313
:101A100000F0A8FE22462B4601F058F86AA3D3E94D
:101A2000002300F0A1FE22462B4601F04FF8CDE93D
:101A30000001204629460022654B01F047F8DDE908
:101A40000023804689462046294601F03FF8524649
:101A500004460D465B463046394601F037F80246EB
:101A60000B462046294600F07DFE02460B464046C6
:101A7000494600F077FE02460B460020554900F02B
:101A800071FE05B0BDE8F08F02460B4601F01EF86E
:101A900043A3D3E9002304460D4601F017F842A3FF
:101AA000D3E9002300F060FE22462B4601F00EF839
:101AB0003FA3D3E9002300F055FE22462B4601F058
:101AC00005F83DA3D3E9002300F04EFE22462B4645
:101AD00000F0FCFF3AA3D3E9002300F043FE2246C6
:101AE0002B4600F0F3FF38A3D3E9002300F03CFEBF
:101AF0002B46224600F0EAFF374B9945CDE900011D
:101B000097DD364B99454FF0000239DCA9F50013FB
:101B1000002200202F499046994600F023FECDE98F
:101B20000201204629460022294B00F0CFFF424601
:101B30004B4600F017FEDDE900238046894620462B
:101B4000294600F0C3FF524604460D465B46304628
:101B5000394600F0BBFF02460B462046294600F0FE
:101B600001FE02460B464046494600F0FBFD024698
:101B70000B46DDE9020100F0F5FD05B0BDE8F08F90
:101B8000174BDFF86090CDE902234FF00008C8E75B
:101B90001049002005B0BDE8F08F00BFAFF3008012
:101BA000D43888BEE9FAA8BDC4B1B4BD9EEE213ECA
:101BB000AD529C804F7E923E9015CB19A001FA3E0B
:101BC0007751C1166CC1563F4C5555555555A53FDB
:101BD0000000E03F0000F03F3233D33F0000E93F18
:101BE0000000E73F0000D23F2DE9F04FADF51D7D2D
:101BF0001B4CA69E1B4D54F826400C94D41E85FB0E
:101C00000465E417C4EBA50424EAE4740E94994631
:101C10000790E3430B910E980C9909F1FF3403EB05
:101C20004303049402EBC303061B64180A931BD4FA
:101C3000A798344401340DF1880800EB860500278D
:101C400009E0E85900F0DCFE0136A642E8E90201AD
:101C500007F1040708D0002EF3DA00200021F3E793
:101C6000B8320008ABAAAA2A0C9C002C2DDB0C9CD5
:101C700074AE06EBC40B24A800EBC90A0DF5E4789A
:101C8000CDF80CB0049C002CC0F28581079E57460D
:101C9000A6F1080B00240025002677E90223FBE9C2
:101CA000020100F013FF02460B462046294600F0D1
:101CB0005BFD01364E4504460D46EED1E8E902458E
:101CC000039EB0450AF1080ADCD10C9E039610ACC5
:101CD000029404EB86040F94039C039EE4009CABE7
:101CE0002344002E069453E928452EDD069E0DF56B
:101CF000E87AB244039E0DF13C0B0BEB860B0DF121
:101D00003C080022AA4B2046294600F0DFFE01F0E5
:101D100077F900F075FE0022A64B06460F4600F04C
:101D2000D5FE02460B462046294600F01BFD01F079
:101D300067F9324648F8040F3B467AE9020100F0A1
:101D400013FDD84504460D46DBD1204629460A9AA4
:101D500000F06EFC00224FF07F5304460D4600F069
:101D6000B5FE00F0D5FB0022934B00F0AFFE02461B
:101D70000B462046294600F0F5FC04460D4601F0CE
:101D80003FF9824600F03CFE02460B4620462946BB
:101D900000F0E8FC0A9C002C06460F4640F3C98080
:101DA000039C10AA611E0A9C52F82130C4F118004D
:101DB00043FA00F2C4F1170502FA00F010AC1B1A46
:101DC00044F82130924443FA05F5002D2CDD039CA4
:101DD000002C0AF1010A40F3E98010AB03EB840008
:101DE000002453F8041BC1F1FF1202F57F4214B91D
:101DF000C1F1807211B143F8042C01248342F0D167
:101E00000A9800280DDD012800F0B480022808D1CE
:101E1000039910A84B1E50F82320C2F3150240F876
:101E20002320022D00F08D80304639460022002309
:101E300001F0B4F8002800F0C580039C0C9E04F16A
:101E4000FF3846450DDC10A800EB84030F980022F4
:101E500053F8041D834242EA0102F9D1002A40F0FE
:101E60004D820C9C10AE621E56F82230002B40F0C2
:101E7000438206EB8202012352F8041D013300293C
:101E8000FAD0039C039E1C44731CA3420D944ADCAD
:101E9000049C314632460E9E234432440D9C039EE0
:101EA00003F1FF3BA31BA79E24A8494400EBC104F8
:101EB00006EB8202069E099474ACDB00344400EB0E
:101EC000CB0B0392089306944FF00008039C54F840
:101ED000040F039400F094FD049E002E08F10808FE
:101EE000EBE9020122DB079C099FA4F1080A4744A1
:101EF00000240025002677E90223FAE9020100F018
:101F0000E5FD02460B462046294600F02DFC013631
:101F10004E4504460D46EED1069EE6E90245089C74
:101F20000696A045D2D10D9E0396D5E60024002545
:101F3000F2E729D1039C10A8631E50F82350ED1539
:101F400043E732463B4600201C4900F00BFC0646A6
:101F50000F46002C3FF468AF0A9A1849002000F0A1
:101F600067FB02460B463046394600F0FBFB06464F
:101F70000F4659E7039910A84B1E50F82320C2F3CF
:101F8000160240F823204CE700220D4B01F024F804
:101F900020B9054648E7002400258FE6039C002C65
:101FA0004FF002050AF1010A3FF717AF002427E7B7
:101FB0000000703E00007041000020400000F03F33
:101FC0000000E03F30460A9E069572423946CDF841
:101FD0001CA000F02DFB0022924B04460D4600F0A1
:101FE000FBFF002800F0B68100228F4B20462946D7
:101FF00000F06CFD01F004F8064600F001FD00223F
:10200000884B00F063FD02460B462046294600F04F
:10201000A9FB00F0F5FF039C04F101080A9C1834A9
:1020200010A90A94039C41F8240041F828600A9AF8
:102030007E49002000F0FCFAB8F1000F04460D467E
:102040005ADB08F1010610A874A9039600EB860775
:1020500001EBC60657F8040D00F0D2FC22462B46D1
:1020600000F034FD002266E902016F4B204629464C
:1020700000F02CFD029A974204460D46EAD108F181
:10208000005B0BF1FF3B74AB0DF5987ACDF8208027
:10209000DDF83080CDF810A003EBCB0B4FF000093A
:1020A000B8F1000FC0F22281DFF884A15F4600245E
:1020B0000025002601E04E4510DCF7E90223FAE98D
:1020C000020100F003FD02460B462046294600F0BF
:1020D0004BFB0136B04504460D46ECDA049E06EB98
:1020E000C903C3E90045039C09F10109A145ABF10E
:1020F000080BD5D1DDF82080A69E032E00F28A8041
:10210000DFE816F0D400980098000400B8F1000F42
:1021100040F30C810DF5987A4FEAC80B0AEB0B03DC
:10212000D3E9006708F101030AEBC303039399465F
:102130000DF59C7C01E026462F4659E90401324604
:102140003B46CDF804C0CDE9040100F00DFB044688
:102150000D4622462B46DDE9040100F003FB324622
:102160003B4600F001FB69E90201DDF804C0E145EE
:1021700049E90245DFD1B8F1010F40F30981DDF8EB
:102180000CC0CDF810A0D344DBE900450AF1100BD8
:10219000E24601E034463D465AE9048922462B4690
:1021A0004046494600F0E0FA06460F4632463B46B6
:1021B0004046494600F0D6FA22462B4600F0D4FAB3
:1021C0006AE90201DA454AE90267E3D1DDF810A0C5
:1021D000039C0020002174E9022300F0C5FAA34506
:1021E000F9D1069C002C00F0A9800B9EDAF804506F
:1021F000DAF80C40DAF80020DAF80830326005F13D
:10220000004504F1004401F100427560F460B360E0
:1022100030617261079C04F007000DF51D7DBDE87B
:10222000F08F00BF000070410000703E0000F03FE2
:10223000C0320008B8F1000FC0F2A5800DF5987A01
:1022400008F101040AEBC4040020002174E9022310
:1022500000F08AFA5445F9D1069C002C49D0024678
:1022600001F100430B9EC6E9002302460B46DAE962
:10227000000100F077FAB8F1000F07DD0AEBC8089B
:10228000FAE9022300F070FAC245F9D1069C002C4D
:102290006AD00B9E024601F10043C6E90223079C67
:1022A00004F007000DF51D7DBDE8F08FB8F1000FBB
:1022B00066DB08F101044CAD05EBC40400200021ED
:1022C00074E9022300F050FAAC42F9D1069C002CCC
:1022D00050D00B9E024601F10043C6E90023079C43
:1022E00004F007000DF51D7DBDE8F08F00240025EA
:1022F000F4E602460B46B5E70123C2E510AE0A9CA0
:1023000056F82830CDF81CA0183C06950A94002BEE
:102310007FF48DAE06EB8803224653F8041D08F1C6
:10232000FF38183A0029F8D00A9280E6069C00206F
:1023300000210DF5987A002C7FF457AFDAE90023DD
:10234000DAE902450B9EC6E90401C6E90023C6E9A5
:1023500002455FE72046294600F052FE10AE039C7E
:1023600046F82400A04662E60B9E02460B46C6E9EC
:10237000022394E70B9E02460B46C6E90023AEE714
:1023800000200021A2E7002000210DF5987A63E7E4
:102390000020002125E700BF2DE9F04F21F0004685
:1023A000B6F1795F85B004460D469046994604DA49
:1023B00000F026FE002800F0848022462B462046AE
:1023C000294600F083FB22462B4606460F4600F0C6
:1023D0007DFB3FA3D3E9002382468B463046394636
:1023E00000F074FB3CA3D3E9002300F0BBF93246B4
:1023F0003B4600F06BFB3AA3D3E9002300F0B4F9AD
:1024000032463B4600F062FB37A3D3E9002300F0DD
:10241000A9F932463B4600F059FB35A3D3E9002326
:1024200000F0A2F90E9BCDE90201002B33D040460B
:1024300049460022324B00F049FBDDE90223CDE999
:1024400000015046594600F041FB02460B46DDE9CB
:10245000000100F087F932463B4600F037FB424668
:102460004B4600F07FF924A3D3E9002306460F462C
:102470005046594600F02AFB02460B463046394684
:1024800000F072F902460B462046294600F06AF930
:1024900005B0BDE8F08FDDE902233046394600F093
:1024A00015FB15A3D3E9002300F05CF952465B4607
:1024B00000F00CFB22462B4600F056F905B0BDE8B3
:1024C000F08F2046294605B0BDE8F08FAFF30080BD
:1024D0007CD5CF5A3AD9E53DEB9C2B8AE6E55A3EAE
:1024E0007DFEB157E31DC73ED561C119A0012A3F4A
:1024F000A6F810111111813F495555555555C53F45
:102500000000E03FAFF3008021F00041704700BFC2
:102510002DE9F84FC1F30A57A7F2FF36132E0246F2
:102520000B4604460D4689468A4680461CDC002E32
:1025300040DB3D4F374107EA010C5CEA000C18D044
:1025400037A3D3E9002300F00FF90022002300F0A5
:102550004DFD28B1002D42DB2AEA07094FF00008A3
:1025600040464946BDE8F88F332E06DDB6F5806F4C
:1025700031D010461946BDE8F88FA7F2134C4FF042
:10258000FF3B2BFA0CFB1BEA000FF2D024A3D3E98C
:10259000002300F0E9F80022002300F027FD0028C6
:1025A000DED0002D22DB28EA0B08D1464046494602
:1025B000BDE8F88F1AA3D3E9002300F0D5F8002274
:1025C000002300F013FD0028CAD0002D1CDB4FF0C3
:1025D0000008C146C4E700F0C7F8BDE8F88F4FF423
:1025E000801A4AFA06F606EB050AB5E7142E14D04F
:1025F000C7F586670123033703FA07F717EB0408CB
:1026000028BF05EB030ACEE725F00042074B224323
:1026100018BF99464FF00008A2E705F1010AC2E78A
:102620009C7500883CE4377EFFFF0F000000F0BF80
:10263000C1F30A532DE9F041904606460F460A467B
:102640001BBB21F00043034334D03B4B002200F07E
:102650003DFA3A4B984506460F463BDBC1F30A5319
:10266000363B0A46434440F2FE718B4216DD324649
:102670003B462DA1D1E9000100F066F82AA3D3E979
:10268000002300F023FABDE8F08140F2FF74A3427A
:1026900027D0434440F2FE718B42E8DC002B0BDD77
:1026A00022F0FF4222F4E00242EA03573046394664
:1026B000BDE8F081BDE8F08113F1350F17DA4CF277
:1026C0005033984532463B4620DC19A1D1E9000140
:1026D00000F03AF816A3D3E9002300F0F7F9BDE8BB
:1026E000F08102460B4600F03FF8BDE8F08122F091
:1026F000FF4222F4E002363342EA035730463946BD
:1027000000220F4B00F0E2F9BDE8F08106A1D1E90B
:10271000000100F019F804A3D3E9002300F0D6F972
:10272000BDE8F081AFF300809C7500883CE4377E03
:1027300059F3F8C21F6EA50100005043B03CFFFFE3
:102740000000903CAFF3008030B403F0004321F070
:10275000004243EA020130BC704700BF81F00041F3
:1027600002E000BF83F0004330B54FEA41044FEA76
:10277000430594EA050F08BF90EA020F1FBF54EA11
:10278000000C55EA020C7FEA645C7FEA655C00F0AD
:10279000E2804FEA5454D4EB5555B8BF6D420CDD7E
:1027A0002C4480EA020281EA030382EA000083EA01
:1027B000010180EA020281EA0303362D88BF30BDA1
:1027C00011F0004F4FEA01314FF4801C4CEA1131F7
:1027D00002D0404261EB410113F0004F4FEA033356
:1027E0004CEA133302D0524263EB430394EA050FE1
:1027F00000F0A780A4F10104D5F1200E0DDB02FA50
:102800000EFC22FA05F2801841F1000103FA0EF2E3
:10281000801843FA05F359410EE0A5F120050EF1A9
:10282000200E012A03FA0EFC28BF4CF0020C43FADA
:1028300005F3C01851EBE37101F0004507D54FF0E7
:10284000000EDCF1000C7EEB00006EEB0101B1F537
:10285000801F1BD3B1F5001F0CD349085FEA30007D
:102860004FEA3C0C04F101044FEA445212F5800F88
:1028700080F09A80BCF1004F08BF5FEA500C50F125
:10288000000041EB045141EA050130BD5FEA4C0C08
:10289000404141EB010111F4801FA4F10104E9D191
:1028A00091F0000F04BF01460020B1FA81F308BF88
:1028B0002033A3F10B03B3F120020CDA0C3208DD54
:1028C00002F1140CC2F10C0201FA0CF021FA02F12F
:1028D0000CE002F11402D8BFC2F1200C01FA02F19F
:1028E00020FA0CFCDCBF41EA0C019040E41AA2BFC4
:1028F00001EB0451294330BD6FEA04041F3C1CDA8C
:102900000C340EDC04F11404C4F1200220FA04F0AB
:1029100001FA02F340EA030021FA04F345EA030155
:1029200030BDC4F10C04C4F1200220FA02F001FA17
:1029300004F340EA0300294630BD21FA04F0294699
:1029400030BD94F0000F83F4801306BF81F4801132
:102950000134013D4EE77FEA645C18BF7FEA655CA5
:1029600029D094EA050F08BF90EA020F05D054EA77
:10297000000C04BF1946104630BD91EA030F1EBF7C
:102980000021002030BD5FEA545C05D14000494180
:1029900028BF41F0004130BD14F580043CBF01F573
:1029A000801130BD01F0004545F0FE4141F4700159
:1029B0004FF0000030BD7FEA645C1ABF1946104634
:1029C0007FEA655C1CBF0B46024650EA013406BF35
:1029D00052EA033591EA030F41F4002130BD00BFF4
:1029E00090F0000F04BF0021704730B54FF48064B1
:1029F00004F132044FF000054FF0000150E700BF32
:102A000090F0000F04BF0021704730B54FF4806490
:102A100004F1320410F0004548BF40424FF000017D
:102A20003EE700BF42004FEAE2014FEA31014FEAC0
:102A300002701FBF12F07F4393F07F4F81F060510F
:102A4000704792F0000F14BF93F07F4F704730B57E
:102A50004FF4607401F0004521F0004120E700BF11
:102A600050EA010208BF704730B54FF000050AE098
:102A700050EA010208BF704730B511F0004502D599
:102A8000404261EB41014FF4806404F132045FEA9B
:102A9000915C3FF4DCAE4FF003025FEADC0C18BF40
:102AA00003325FEADC0C18BF033202EBDC02C2F136
:102AB000200300FA03FC20FA02F001FA03FE40EAC8
:102AC0000E0021FA02F11444C1E600BF70B54FF0C8
:102AD000FF0C4CF4E06C1CEA11541DBF1CEA1355AA
:102AE00094EA0C0F95EA0C0F00F0DEF82C4481EA12
:102AF000030621EA4C5123EA4C5350EA013518BF32
:102B000052EA033541F4801143F4801338D0A0FB1E
:102B100002CE4FF00005E1FB02E506F00042E0FBCB
:102B200003E54FF00006E1FB03569CF0000F18BFD1
:102B30004EF0010EA4F1FF04B6F5007F64F5407479
:102B400004D25FEA4E0E6D4146EB060642EAC6210C
:102B500041EA55514FEAC52040EA5E504FEACE2E79
:102B6000B4F1FD0C88BFBCF5E06F1ED8BEF1004F7C
:102B700008BF5FEA500E50F1000041EB045170BDF8
:102B800006F0004646EA010140EA020081EA03013C
:102B9000B4EB5C04C2BFD4EB0C0541EA045170BD38
:102BA00041F480114FF0000E013C00F3AB8014F1B2
:102BB000360FDEBF002001F0004170BDC4F10004FB
:102BC000203C35DA0C341BDC04F11404C4F120057C
:102BD00000FA05F320FA04F001FA05F240EA0200D7
:102BE00001F0004221F0004110EBD37021FA04F60D
:102BF00042EB06015EEA430E08BF20EAD37070BDC7
:102C0000C4F10C04C4F1200500FA04F320FA05F025
:102C100001FA04F240EA020001F0004110EBD37027
:102C200041F100015EEA430E08BF20EAD37070BD97
:102C3000C4F1200500FA05F24EEA020E20FA04F370
:102C400001FA05F243EA020321FA04F001F000411F
:102C500021FA04F220EA020000EBD3705EEA430E90
:102C600008BF20EAD37070BD94F0000F0FD101F0BF
:102C70000046400041EB010111F4801F08BF013CF8
:102C8000F7D041EA060195F0000F18BF704703F036
:102C90000046520043EB030313F4801F08BF013DBD
:102CA000F7D043EA0603704794EA0C0F0CEA135579
:102CB00018BF95EA0C0F0CD050EA410618BF52EA33
:102CC0004306D1D181EA030101F000414FF0000039
:102CD00070BD50EA410606BF1046194652EA430647
:102CE00019D094EA0C0F02D150EA013613D195EABB
:102CF0000C0F05D152EA03361CBF104619460AD103
:102D000081EA030101F0004141F0FE4141F470010C
:102D10004FF0000070BD41F0FE4141F4780170BDFC
:102D200070B54FF0FF0C4CF4E06C1CEA11541DBF61
:102D30001CEA135594EA0C0F95EA0C0F00F0A7F863
:102D4000A4EB050481EA030E52EA03354FEA013190
:102D500000F088804FEA03334FF0805545EA1313A3
:102D600043EA12634FEA022245EA111545EA10656B
:102D70004FEA00260EF000419D4208BF964244F102
:102D8000FD0404F5407402D25B084FEA3202B61A21
:102D900065EB03055B084FEA32024FF480104FF4F5
:102DA000002CB6EB020E75EB030E22BFB61A754669
:102DB00040EA0C005B084FEA3202B6EB020E75EBFC
:102DC000030E22BFB61A754640EA5C005B084FEA64
:102DD0003202B6EB020E75EB030E22BFB61A754631
:102DE00040EA9C005B084FEA3202B6EB020E75EB3C
:102DF000030E22BFB61A754640EADC0055EA060EFD
:102E000018D04FEA051545EA16754FEA06164FEA3F
:102E1000C30343EA52734FEAC2025FEA1C1CC0D1EB
:102E200011F4801F0BD141EA00014FF000004FF078
:102E3000004CB6E711F4801F04BF01430020B4F139
:102E4000FD0C88BFBCF5E06F3FF6AFAEB5EB030CF1
:102E500004BFB6EB020C5FEA500C50F1000041EBEE
:102E6000045170BD0EF0004E4EEA113114EB5C04BB
:102E7000C2BFD4EB0C0541EA045170BD41F480118E
:102E80004FF0000E013C90E645EA060E8DE60CEA96
:102E9000135594EA0C0F08BF95EA0C0F3FF43BAFB3
:102EA00094EA0C0F0AD150EA01347FF434AF95EA6A
:102EB0000C0F7FF425AF104619462CE795EA0C0F4E
:102EC00006D152EA03353FF4FDAE1046194622E71B
:102ED00050EA410618BF52EA43067FF4C5AE50EAF5
:102EE00041047FF40DAF52EA43057FF4EBAE12E7E5
:102EF0004FF0FF3C06E000BF4FF0010C02E000BFC6
:102F00004FF0010C4DF804CD4FEA410C7FEA6C5CA8
:102F10004FEA430C18BF7FEA6C5C1BD001B050EA4B
:102F2000410C0CBF52EA430C91EA030F02BF90EA36
:102F3000020F0020704710F1000F91EA030F58BFF5
:102F4000994208BF90422CBFD8176FEAE37040F057
:102F5000010070474FEA410C7FEA6C5C02D150EAF5
:102F6000013C07D14FEA430C7FEA6C5CD6D152EAB0
:102F7000033CD3D05DF8040B704700BF8446104675
:102F800062468C461946634600E000BF01B5FFF774
:102F9000B7FF002848BF10F1000F01BD4DF808ED44
:102FA000FFF7F4FF0CBF012000205DF808FB00BF15
:102FB0004DF808EDFFF7EAFF34BF012000205DF86F
:102FC00008FB00BF4DF808EDFFF7E0FF94BF0120BC
:102FD00000205DF808FB00BF4DF808EDFFF7CEFFBD
:102FE00094BF012000205DF808FB00BF4DF808EDFC
:102FF000FFF7C4FF34BF012000205DF808FB00BFCD
:103000004FEA410212F5001215D211D56FF4787310
:10301000B3EB625212D94FEAC12343F0004343EAB3
:10302000505311F0004F23FA02F018BF404270478E
:103030004FF00000704750EA013005D111F0004018
:1030400008BF6FF0004070474FF00000704700BFAE
:103050004FEA4102B2F1E04324BFB3F5001CDCF1BA
:10306000FE5C0DD901F0004C4FEAC0024CEA5070F2
:10307000B2F1004F40EB830008BF20F00100704721
:1030800011F0804F21D113F13872BCBF01F0004024
:10309000704741F480114FEA5252C2F11802C2F156
:1030A000200C10FA0CF320FA02F018BF40F00100D7
:1030B0004FEAC1234FEAD32303FA0CFC40EA0C0089
:1030C00023FA02F34FEA4303CCE77FEA625307D1C6
:1030D00050EA01331EBF4FF0FE4040F440007047FD
:1030E00001F0004040F0FE4040F40000704700BF97
:1030F00042000ED2B2F1FE4F0BD34FF09E03B3EB62
:10310000126209D44FEA002343F0004323FA02F08D
:1031100070474FF00000704712F1610F01D1420279
:1031200002D14FF0FF3070474FF00000704700BFF2
:10313000FB21F93FFB2109407CD91240FB211940BA
:103140007A6A1F407CD92240BBFD2540FB212940E3
:103150003A462C407A6A2F405C4731407CD9324055
:103160009C6B3440BBFD3540DB8F3740FB21394041
:103170001BB43A403A463C405AD83D407A6A3F40F8
:103180004C7E40405C4741406C1042407CD94240FC
:103190008CA243409C6B4440AC344540BBFD454051
:1031A000CBC64640DB8F4740EB584840FB214940A7
:1031B00083F9A200444E6E00FC291500D157270068
:1031C000DD34F50062DBC0003C999500419043007E
:1031D0006351FE00BBDEAB00B761C5003A6E240050
:1031E000D24D42004906E00009EA2E001C92D100AF
:1031F000EB1DFE0029B11C00E83EA700F53582005A
:1032000044BB2E009CE98400B4267000417E5F0020
:10321000D6913900538339009CF439008B5F8400C8
:1032200028F9BD00F81F3B00DEFF97000F9805004E
:10323000112FEF000A5A8B006D1F6D00CF7E3600F4
:1032400009CB2700464FB7009E663F002DEA5F007E
:10325000BA277500E5EBC7003D7BF100F7390700A1
:1032600092528A00FB6BEA001FB15F00085D8D007F
:10327000300356007BFC4600F0AB6B0020BCCF0057
:1032800036F49A00E3A91D005E619100081BE60078
:1032900085996500A0145F008D40680080D8FF000C
:1032A00027734D0006063100CA561500C9A87300E1
:1032B0007BE260006B8CC000020000000300000095
:1032C000040000000600000000000040FB21F93F60
:1032D000000000002D44743E000000809846F83C39
:1032E0000000006051CC783B00000080831BF03967
:1032F0000000004020257A38000000802282E3365A
:08330000000000001DF3693517
:0400000508000000EF
:00000001FF
