:020000040800F2
:10000000FC34012089010008E5010008E501000831
:10001000E5010008E5010008E50100080000000016
:10002000000000000000000000000000E5010008E2
:10003000E501000800000000E5010008E5010008F6
:10004000E5010008E5010008E5010008E5010008F8
:10005000E5010008E5010008E5010008E5010008E8
:10006000E5010008E5010008E5010008E5010008D8
:10007000E5010008E5010008E5010008E5010008C8
:10008000E5010008E5010008E5010008E5010008B8
:10009000E5010008E5010008E5010008E5010008A8
:1000A000E5010008E5010008E5010008E501000898
:1000B000ED0E0008E5010008E5010008E501000873
:1000C000E5010008E5010008E5010008E501000878
:1000D000E5010008E5010008E5010008E501000868
:1000E000E5010008E5010008E5010008E501000858
:1000F000E5010008E5010008E5010008E501000848
:10010000E5010008E5010008E5010008E501000837
:10011000E5010008E5010008E5010008E501000827
:10012000E5010008E5010008E5010008E501000817
:10013000E5010008E5010008E5010008E501000807
:10014000E5010008E5010008E5010008E5010008F7
:10015000A50F0008E5010008E5010008E501000819
:10016000E5010008E5010008E5010008E5010008D7
:10017000E5010008E5010008E5010008E5010008C7
:10018000E5010008E501000880B582B000AF104B22
:100190007B60104B3B6007E03B681A1D3A607A6851
:1001A000111D796012681A603A680B4B9A42F3D3BA
:1001B0000A480B494FF000028842B8BF40F8042BB0
:1001C000FFF6FAAF00F0F4F80837BD4680BD00BF77
:1001D00030920008000000200000002000000020F5
:1001E000FC2C012080B400AFFEE700BF90B58DB0BD
:1001F00000AF78607A68644B9A4223D10023FB6297
:100200001CE00023BB6213E0BB6A98B2FB6A99B2A0
:100210005E4CFA6A13469B0013441B01BA6A1344EE
:1002200023441B781A4600F00FFDBB6A0133BB6202
:10023000BB6A4F2BE8DDFB6A0133FB62FB6A4F2B85
:10024000DFDD9EE07A68524B9A4223D100237B6225
:100250001CE000233B6213E03B6A98B27B6A99B2D0
:100260004C4C7A6A13469B0013441B013A6A1344B0
:1002700023441B781A4600F0E7FC3B6A01333B62DB
:100280003B6A4F2BE8DD7B6A01337B627B6A4F2B35
:10029000DFDD76E07A68404B9A4223D10023FB6190
:1002A0001CE00023BB6113E0BB6998B2FB6999B203
:1002B0003A4CFA6913469B0013441B01BA69134474
:1002C00023441B781A4600F0BFFCBB690133BB61B5
:1002D000BB694F2BE8DDFB690133FB61FB694F2BE9
:1002E000DFDD4EE07A682E4B9A4223D100237B61FA
:1002F0001CE000233B6113E03B6998B27B6999B233
:10030000284C7A6913469B0013441B013A69134435
:1003100023441B781A4600F097FC3B6901333B618C
:100320003B694F2BE8DD7B6901337B617B694F2B98
:10033000DFDD26E07A681C4B9A4222D10023FB6065
:100340001CE00023BB6013E0BB6898B2FB6899B265
:10035000164CFA6813469B0013441B01BA681344F9
:1003600023441B781A4600F06FFCBB680133BB6066
:10037000BB684F2BE8DDFB680133FB60FB684F2B4C
:10038000DFDD3437BD4690BDFC910008FC14000849
:1003900008920008FC2D000810920008FC46000896
:1003A00018920008FC5F000824920008FC780008FE
:1003B00080B500AF00F03AF900F0E2FB002000F059
:1003C0001FFC0248FFF712FFFEE700BF089200087B
:1003D00080B483B000AF78600B46FB70FB78002BD5
:1003E00006D0094B084A116B7A680A431A6306E083
:1003F000054B054A116B7A68D2430A401A630C37E1
:10040000BD465DF8047B70470038024080B483B07D
:1004100000AF78600B46FB70FB78002B06D0094BD1
:10042000084A116C7A680A431A6406E0054B054ACB
:10043000116C7A68D2430A401A640C37BD465DF8E5
:10044000047B70470038024080B483B000AF78600E
:100450000B46FB70FB78002B06D0094B084A516C09
:100460007A680A435A6406E0054B054A516C7A687B
:10047000D2430A405A640C37BD465DF8047B70478E
:100480000038024080B487B000AF78603960002344
:100490007B6100233B610023FB6000237B6176E0EE
:1004A0007B69012202FA03F33B613B681A683B69EE
:1004B0001340FB60FA683B699A4265D17B681A6811
:1004C0007B695B00032101FA03F3DB431A407B687D
:1004D0001A607B681A683B681B7919467B695B0068
:1004E00001FA03F31A437B681A603B681B79012BFE
:1004F00003D03B681B79022B2ED17B689A687B69FD
:100500005B00032101FA03F3DB431A407B689A6026
:100510007B689A683B685B7919467B695B0001FAE6
:1005200003F31A437B689A607B685A687B699BB2C5
:10053000012101FA03F3DB431A407B685A607B68B0
:100540005A683B689B7919467B699BB201FA03F3B1
:100550009BB21A437B685A607B68DA687B699BB2FE
:100560005B00032101FA03F3DB431A407B68DA6086
:100570007B68DA683B68DB7919467B695B0001FAC6
:1005800003F31A437B68DA607B6901337B617B6923
:100590000F2B85D91C37BD465DF8047B704700BF23
:1005A00080B485B000AF786013460A467A807B70CD
:1005B0000023FB600023BB607A787B8803F007038D
:1005C0009B0002FA03F3FB607B88DB089BB21A46B0
:1005D0007B88DB089BB219467B68083153F82110F1
:1005E0007B8803F007039B000F2000FA03F3DB4333
:1005F00019407B68083243F822107B88DB089BB2E5
:100600001A467B68083253F82220FB681343BB600C
:100610007B88DB089BB21A467B680832B96843F8CE
:1006200022101437BD465DF8047B704780B500AFDB
:10063000114B114A126842F001021A600E4B00225F
:100640009A600D4A0C4B1B6823F0847323F48033AB
:100650001360094B094A5A60074B074A126822F493
:1006600080221A60044B0022DA6000F00BF8044B81
:100670004FF000629A6080BD0038024010300024C4
:1006800000ED00E080B483B000AF00237B60002366
:100690003B60354B344A126842F480321A60324B68
:1006A0001B6803F400333B607B6801337B603B686D
:1006B000002B03D17B68B3F5A06FF0D12A4B1B68E8
:1006C00003F40033002B02D001233B6001E0002340
:1006D0003B603B68012B42D1234B234A126C42F012
:1006E00080521A64214B214A126842F480421A60F7
:1006F0001D4B1D4A92689A601B4B1B4A926842F43C
:1007000000429A60184B184A926842F4A0529A60CC
:10071000154B174A5A60144B134A126842F0807204
:100720001A6000BF104B1B6803F00073002BF9D058
:10073000104B40F205621A600B4B0B4A926822F094
:1007400003029A60084B084A926842F002029A60DB
:1007500000BF054B9B6803F00C03082BF9D10C3745
:10076000BD465DF8047B70470038024000700040D1
:1007700008544007003C024080B483B000AF78606A
:100780007B681B6823F001027B681A607B6800228B
:100790001A607B6800225A607B6800229A607B683E
:1007A0000022DA607B6800221A617B6821225A618C
:1007B0007A68454B9A4203D1444B3D229A607EE0D1
:1007C0007A68434B9A4204D1404B4FF474629A606A
:1007D00075E07A683F4B9A4204D13C4B4FF4741257
:1007E0009A606CE07A683C4B9A4204D1374B4FF0E8
:1007F00074629A6063E07A68384B9A4203D1334B53
:10080000374ADA605BE07A68364B9A4203D12F4B65
:10081000354ADA6053E07A68344B9A4203D12B4B65
:10082000334ADA604BE07A68324B9A4204D1274B64
:100830004FF03D52DA6042E07A682F4B9A4203D182
:100840002E4B3D229A603AE07A682D4B9A4204D1B1
:100850002A4B4FF474629A6031E07A68294B9A42CD
:1008600004D1264B4FF474129A6028E07A68264B24
:100870009A4204D1214B4FF074629A601FE07A686B
:10088000224B9A4203D11D4B154ADA6017E07A6871
:100890001F4B9A4203D1194B134ADA600FE07A6872
:1008A0001C4B9A4203D1154B114ADA6007E07A6873
:1008B000194B9A4203D1114B4FF03D52DA600C377D
:1008C000BD465DF8047B7047106002400060024046
:1008D0002860024040600240586002407060024060
:1008E0003D00002088600240400F0020A0600240D0
:1008F00000003D20B86002401064024000640240E5
:10090000286402404064024058640240706402401F
:1009100088640240A0640240B864024080B485B09C
:1009200000AF786039600023FB607B681B68FB6068
:10093000FA68244B1340FB603B681A683B68DB682D
:100940001A433B685B691A433B689B691A433B68DF
:10095000DB691A433B681B6A1A433B685B6A1A43AC
:100960003B689B6A1A433B685B6B1A433B689B6B13
:100970001343FA681343FB607B68FA681A607B686C
:100980005B69FB60FB6823F00703FB603B68DA6A86
:100990003B681B6B1343FA681343FB607B68FA6880
:1009A0005A613B681A697B685A603B685A687B6881
:1009B0009A603B689A687B68DA601437BD465DF8D8
:1009C000047B70473F801CF080B483B000AF786038
:1009D0000B46FB70FB78002B06D07B681B6843F04E
:1009E00001027B681A6005E07B681B6823F0010246
:1009F0007B681A600C37BD465DF8047B704700BF0A
:100A000080B485B000AFF860B9601346FB71BB6875
:100A100003F08003002B0FD0FB79002B06D0FB687E
:100A20005B6943F08002FB685A6105E0FB685B6923
:100A300023F08002FB685A61BB68802B14D0FB79DD
:100A4000002B08D0FB681A68BB6803F01E031A432A
:100A5000FB681A6008E0FB681A68BB6803F01E03B5
:100A6000DB431A40FB681A601437BD465DF8047B0F
:100A7000704700BF80B487B000AF78603960002352
:100A8000FB750023FB600023BB607A68224B9A420F
:100A900002D8224B3B6101E0214B3B613B6823F0D4
:100AA000F02323F0C313002B0AD03B68DB0A03F0CA
:100AB0001E03FB607B681A68FB681340BB6004E0A0
:100AC0007B685B6903F08003BB603B6803F0005305
:100AD000002B03D03B695B68FB6002E03B691B684D
:100AE000FB60FB6823F0F02323F08213FB60FA68BD
:100AF0003B681340002B05D0BB68002B02D00123BC
:100B0000FB7501E00023FB75FB7D18461C37BD46D5
:100B10005DF8047B704700BF0F6402400060024034
:100B20000064024080B485B000AF786039607A68B4
:100B3000104B9A4202D8104BFB6001E00F4BFB6058
:100B40003B6803F00053002B07D03B6823F0F023F1
:100B500023F08213FA68D36006E03B6823F0F023A9
:100B600023F08213FA6893601437BD465DF8047B66
:100B7000704700BF0F640240006002400064024002
:100B800080B582B000AF1B4B00221A80194B0022A7
:100B90005A60184B00229A600023BB8017E00023A4
:100BA000FB800DE0BA8813469B0013449B011A4456
:100BB000FB881344104A0021D154FB880133FB8089
:100BC000FB88B3F5A07FEDD9BB880133BB80BB8820
:100BD000EF2BE4D900F05EF800F0B0F800F03EF939
:100BE00000F010F9054B1A68024B9A600837BD46B1
:100BF00080BD00BF000000200C000020886402407F
:100C000080B584B000AF0346FB710023BB8114E0C4
:100C10000023FB810AE0F989BA89FB79084611466D
:100C20001A4600F011F8FB890133FB81FB89B3F50B
:100C3000A07FF0D3BB890133BB81BB89EF2BE7D900
:100C40001037BD4680BD00BF80B483B000AF1346EF
:100C50000246FA800A46BA80FB70FB88B3F5A07F93
:100C600001D30023FB80BB88EF2B01D90023BB807D
:100C7000BA8813469B0013449B011A44FB88134413
:100C8000034AF978D1540C37BD465DF8047B7047B0
:100C90000C00002080B582B000AF10200121FFF7CA
:100CA00097FB4FF47F433B6001233B710023BB71F3
:100CB0000123FB7103237B713B461E481946FFF756
:100CC000E1FB1C4B4FF47F425A8302200121FFF7C6
:100CD0007FFB4FF400633B6002233B7103237B7176
:100CE0000023BB710123FB713B4613481946FFF7F4
:100CF000C9FB11480B210122FFF752FC0220012100
:100D0000FFF766FB4FF480533B6001233B710023E8
:100D1000BB710123FB7103237B713B4606481946D7
:100D2000FFF7B0FB044B4FF480521A830837BD46DF
:100D300080BD00BF001002400004024080B588B0B2
:100D400000AF01200121FFF77FFB0B23BB610023D4
:100D5000BB820023BB830023FB8207F114032848D6
:100D6000194600F0A3F901200121FFF74FFB40F6DF
:100D70006B23BB610023BB820023BB830023FB8268
:100D800007F114034FF08040194600F08FF96023FB
:100D90003B8001237B804FF4D273BB600223BB8175
:100DA0003B464FF08040194600F02AFA4FF0804051
:100DB000082100F011FB60233B8001237B804FF46E
:100DC000A073BB600223BB813B464FF080401946B5
:100DD00000F09CFA4FF08040082100F019FB084811
:100DE000012100F0CDF94FF08040012100F0C8F959
:100DF0004FF08040012100F0E3F92037BD4680BD6F
:100E00000000014080B582B000AF134810210122DC
:100E1000FFF7F6FD44233B7100237B710023BB7178
:100E20000123FB713B1D184600F0E2F84FF08040B3
:100E30000821012200F00AFB1C233B7100237B7177
:100E40000023BB710123FB713B1D184600F0D0F855
:100E50000837BD4680BD00BF8864024080B590B0B1
:100E600000AF4FF480000121FFF7B2FA1B480021C8
:100E7000FFF7AAFD1948FFF77FFC4FF040637B6046
:100E8000174BBB60174BFB6040233B6140F24113A3
:100E90007B610023BB614FF48063FB6100233B62F5
:100EA00000237B620023BB624FF44033FB620023CC
:100EB0003B6301237B630023BB630023FB633B1D78
:100EC00006481946FFF72AFD07484FF480710122B2
:100ED00000F0F0FA4037BD4680BD00BF8864024094
:100EE000151002400C0000200000014080B500AF4A
:100EF0004FF08040082100F0CDFA254B1B880133CC
:100F00009AB2234B1A80224B1B88B3F5037F05D975
:100F10001F4B00221A801F4A1D4B5A601C4B1B8816
:100F2000012B04D81C4B4FF480525A8303E01A4B18
:100F30004FF480521A83164B1B88232B27D9144B4E
:100F40001A8840F202239A4221D8144B104A926820
:100F50001A60124B0E4A5268DA60114B104A12881E
:100F600092B242F0010292B21A800C4B0B4A126804
:100F700042F001021A60064B1B8803F00103002BAC
:100F800005D0034B5B6803F24112014B5A6080BDF0
:100F9000000000200C000020000402408864024091
:100FA0000000014080B500AF0D480E49FFF762FD1B
:100FB0000346002B12D00A480A49FFF7B3FD0A4B3B
:100FC000094A128892B222F0010292B21A80044BAE
:100FD00000221A60054B4FF47F425A8380BD00BF48
:100FE0008864024000880020000001400010024098
:100FF00080B485B000AF78600023FB730023BB731F
:101000000F237B737B68DB78002B37D0254BDB68A5
:10101000DB4303F4E0631B0AFB73FB7BC3F10403B4
:10102000BB737A7BFB7B42FA03F37B737B685B7851
:101030001A46BB7B02FA03F3FB737B689A787B7BCF
:101040001340DAB2FB7B1343FB73FB7B1B01FB7387
:10105000154A7B681B781344FA7B83F80023124BF4
:101060007A6812785209D2B27968097801F01F01C2
:10107000012000FA01F143F822100EE00A4B7A68D1
:1010800012785209D2B27968097801F01F01012063
:1010900000FA01F1203243F822101437BD465DF802
:1010A000047B704700ED00E000E100E080B485B013
:1010B00000AF786039600023FB817B681B88FB816F
:1010C0007A68284B9A4213D07A68274B9A420FD0FD
:1010D0007B68B3F1804F0BD07A68244B9A4207D0DB
:1010E0007A68234B9A4203D07A68224B9A4208D1FD
:1010F000FB8923F07003FB813B685A88FB8913430B
:10110000FB817A681C4B9A420CD07A681B4B9A423E
:1011100008D0FB8923F44073FB813B681A89FB8963
:101120001343FB817B68FA891A803B685A687B68A5
:10113000DA623B681A887B681A857A68094B9A429A
:1011400003D07A68084B9A4204D13B689B7A1A46CE
:101150007B681A867B6801229A821437BD465DF847
:10116000047B70470000014000040140000400407F
:1011700000080040000C0040001000400014004037
:1011800080B483B000AF78600B46FB70FB78002B17
:1011900008D07B681B889BB243F080039AB27B68BF
:1011A0001A8007E07B681B889BB223F080039AB209
:1011B0007B681A800C37BD465DF8047B704700BF22
:1011C00080B483B000AF78600B46FB70FB78002BD7
:1011D00008D07B681B889BB243F001039AB27B68FE
:1011E0001A8007E07B681B889BB223F001039AB248
:1011F0007B681A800C37BD465DF8047B704700BFE2
:1012000080B485B000AF7860396000237B81002313
:10121000FB810023BB817B681B8C9BB223F4807312
:101220009AB27B681A847B681B8CFB817B689B88E5
:10123000BB817B689B8B7B817B8923F070037B81E7
:101240007B8923F003037B813B681A887B891343E6
:101250007B81FB8923F40073FB813B689B891B0224
:101260009AB2FB891343FB813B685B881B029AB2ED
:10127000FB891343FB817A68224B9A4203D07A6838
:10128000214B9A422BD1FB8923F40063FB813B68FD
:10129000DB891B029AB2FB891343FB81FB8923F490
:1012A0008063FB813B689B881B029AB2FB891343D6
:1012B000FB81BB8923F48053BB81BB8923F400539A
:1012C000BB813B681B8A1B019AB2BB891343BB815C
:1012D0003B685B8A1B019AB2BB891343BB817B6865
:1012E000BA899A807B687A899A833B689A687B6816
:1012F000DA637B68FA891A841437BD465DF8047B8B
:10130000704700BF000001400004014080B485B078
:1013100000AF786039600023BB8100237B8100230C
:10132000FB817B681B8C9BB223F480539AB27B6851
:101330001A847B681B8C7B817B689B88FB817B6824
:101340009B8BBB81BB8923F4E043BB81BB8923F426
:101350004073BB813B681B881B029AB2BB89134355
:10136000BB817B8923F400537B813B689B891B03F2
:101370009AB27B8913437B813B685B881B039AB2DB
:101380007B8913437B817A68114B9A4203D07A6838
:10139000104B9A420AD1FB8923F48043FB813B68BE
:1013A0001B8A9B019AB2FB891343FB817B68FA89F4
:1013B0009A807B68BA899A833B689A687B681A64CA
:1013C0007B687A891A841437BD465DF8047B7047C0
:1013D000000001400004014080B485B000AF786097
:1013E0000B467B800023FB817B689B8BFB81FB8909
:1013F00023F00803FB81FA897B881343FB817B6818
:10140000FA899A831437BD465DF8047B704700BFA4
:1014100080B485B000AF78600B467B800023FB81F1
:101420007B689B8BFB81FB8923F40063FB817B88BA
:101430001B029AB2FB891343FB817B68FA899A836A
:101440001437BD465DF8047B704700BF80B483B09D
:1014500000AF786013460A467A807B707B78002B59
:1014600008D07B689B899AB27B8813439AB27B68C9
:101470009A8109E07B689B899AB27B88DB439BB2A7
:1014800013409AB27B689A810C37BD465DF8047BA5
:10149000704700BF80B483B000AF78600B467B809C
:1014A0007B88DB439AB27B681A820C37BD465DF8B5
:1014B000047B704780B483B000AF786013460A465F
:1014C0007A807B707B78002B08D07B689B899AB2EE
:1014D0007B8813439AB27B689A8109E07B689B8979
:1014E0009AB27B88DB439BB213409AB27B689A81A5
:1014F0000C37BD465DF8047B704700BF000000005C
:1015000000000000000000000000000000000000DB
:1015100000000000000000000000000000000000CB
:1015200000000000000000000000000000000000BB
:1015300000000000000000000000000000000000AB
:10154000000000000000000000000000000000009B
:10155000000000000000000000000000000000008B
:10156000000000000000000000000000000000007B
:10157000000000000000000000000000000000006B
:10158000000000000000000000000000000000005B
:10159000000000000000000000000000000000004B
:1015A000000000000000000000000000000000003B
:1015B000000000000000000000000000246C90B457
:1015C000D8D8FCFCFCD8D8D8B4904824000000003F
:1015D000000000000000000000000000000000000B
:1015E00000000000000000000000000000000000FB
:1015F00000000000000000000000000000000000EB
:1016000000000000000000002490D9FDFDFDFDFD5C
:10161000FDFDFCFCFCFCFCFCFCFCFCFCFCB46C24B8
:1016200000000000000000000000000000000000BA
:1016300000000000000000000000000000000000AA
:10164000000000000000000000000000000000009A
:1016500000000000002491D9FDFDFDFDFDFDFDFD14
:10166000FDFDFCFCFCFCFCFCFCFCFCFCFCFCFCFCB8
:10167000D86C000000000000000000000000000026
:10168000000000000000000000000000000000005A
:10169000000000000000000000000000000000004A
:1016A00000000048B5FDFDFDFDFDFDFDFDFDFDFD5E
:1016B000FDFDFDFCFCFCFCFCFCFCFCFCFCFCFCFC67
:1016C000FCFCFC9024000000000000000000000072
:1016D000000000000000000000000000000000000A
:1016E00000000000000000000000000000000000FA
:1016F0000024B5FDFDFDFDFDFDFDFDFDFDFDFDFD38
:10170000FDFDFDFCFCFCFCFCFCFCFCFCFCFCFCFC16
:10171000FCFCFCFCFC902400000000000000000029
:1017200000000000000000000000000000000000B9
:1017300000000000000000000000000000000000A9
:10174000B5FEFDFDFDFDFDFDFDFDFDFDFDFDFDFD10
:10175000FDFDFDFDFCFCFCFCFCFCFCFCFCFCFCFCC5
:10176000FCFCFCFCFCFCFC90000000000000000005
:101770000000000000000000000000000000000069
:10178000000000000000000000000000000048FE13
:10179000FEFEFEFEFDFDFDFDFDFDFDFDFDFDFDFD75
:1017A000FDFDFDFDFCFCFCFCFCFCFCFCFCFCFCFC75
:1017B000FCFCFCFCFCFCFCFCD84800000000000029
:1017C0000000000000000000000000000000000019
:1017D00000000000000000000000000000B5FEFE58
:1017E000FEFEFEFEFEFDFDFDFDFDFDFDFDFDFDFD24
:1017F000FDFDFDFDFCFCFCFCFCFCFCFCFCFCFCFC25
:10180000FCFCFCFCFCFCFCFCFCFC90000000000070
:1018100000000000000000000000000000000000C8
:10182000000000000000000000000024DAFEFEFEC0
:10183000FEFEFEFEFEFEFDFDFDFDFDFDFDFDFDFDD2
:10184000FDFDFDFDFDFCFCFCFCFCFCFCFCFCFCFCD3
:10185000FCFCFCFCFCFCFCFCFCFCFCB40000000000
:101860000000000000000000000000000000000078
:101870000000000000000000000048FEFEFEFEFE2A
:10188000FEFEFEFEFEFEFDFDFDFDFDFDFDFDFDFD82
:10189000FDFDFDFDFDFCFCFCFCFCFCFCFCFCFCFC83
:1018A000FCFCFCFCFCFCFCFCFCFCFCFCD82400006C
:1018B0000000000000000000000000000000000028
:1018C00000000000000000000048FEFEFEFEFEFEDC
:1018D000FEFEFEFEFEFEFEFDFDFDFDFDFDFDFDFD31
:1018E000FDFDFDFDFDFCFCFCFCFCFCFCFCFCFCFC33
:1018F000FCFCFCFCFCFCFCFCFCFCFCFCFCD8240020
:1019000000000000000000000000000000000000D7
:10191000000000000000000048FEFEFEFEFEFEFE8D
:10192000FEFEFEFEFEFEFEFDFDFDFDFDFDFDFDFDE0
:10193000FDFDFDFDFDFCFCFCFCFCFCFCFCFCFCFCE2
:10194000FCFCFCFCFCFCFCFCFCFCFCFCFCFCD824D3
:101950000000000000000000000000000000000087
:101960000000000000000048FEFEFEFEFEFEFEFE3F
:10197000FEFEFEFEFEFEFEFEFDFDFDFDFDFDFDFD8F
:10198000FDFDFDFDFDFCFCFCFCFCFCFCFCFCFCFC92
:10199000FCFCFCFCFCFCFCFCFCFCFCFCFCFCFCD8AB
:1019A0002400000000000000000000000000000013
:1019B00000000000000024FEFEFEFEFEFEFEFEFE15
:1019C000FEFEFEFEFEFEFEFEFDFDFDFDFDFDFDFD3F
:1019D000FDFDFDFDFDFDFCFCFCFCFCFCFCFCFCFC41
:1019E000FCFCFCFCFCFCFCFCFCFCFCFCFCFCFCFC37
:1019F000D80000000000000000000000000000000F
:101A0000000000000000DAFEFEFEFEFEFEFEFEFE0E
:101A1000FEFEFEFEFEFEFEFEFDFDFDFDFDFDFDFDEE
:101A2000FDFDFDFDFDFDFCFCFCFCFCFCFCFCFCFCF0
:101A3000FCFCFCFCFCFCFCFCFCFCFCFCFCFCFCFCE6
:101A4000FCB40000000000000000000000000000E6
:101A50000000000000B5FEFEFEFEFEFEFEFEFEFEE5
:101A6000FEFEFEFEFEFEFEFEFDFDFDFDFDFDFDFD9E
:101A7000FDFDFDFDFDFDFCFCFCFCFCFCFCFCFCFCA0
:101A8000FCFCFCFCFCFCFCFCFCFCFCFCFCFCFCFC96
:101A9000FCFC9000000000000000000000000000BE
:101AA0000000000048FEFEFEFEFEFEFEFEFEFEFE04
:101AB000FEFEFEFEFEFEFEFEFDFDFDFDFDFDFDFD4E
:101AC000FDFDFDFDFDFDFCFCFCFCFCFCFCFCFCFC50
:101AD000FCFCFCFCFCFCFCFCFCFCFCFCFCFCFCFC46
:101AE000FCFCFC48000000000000000000000000BA
:101AF00000000000FEFEFEFEFEFEFEFEFEFEFEFEFE
:101B0000FEFEFEFEFEFED9480024B5FDFDFDFDFDF6
:101B1000FDFDFDFDFDFCFCFCFCFCFCFCFCB424001C
:101B200048D8FCFCFCFCFCFCFCFCFCFCFCFCFCFCCD
:101B3000FCFCFCD8000000000000000000000000D9
:101B400000000091FEFEFEFEFEFEFEFEFEFEFEFE1C
:101B5000FEFEFEFEFED90000000000B5FDFDFDFD0D
:101B6000FDFDFDFDFDFCFCFCFCFCFCFCB4000000EC
:101B70000000D8FCFCFCFCFCFCFCFCFCFCFCFCFCC1
:101B8000FCFCFCFC900000000000000000000000D5
:101B9000000024FEFEFEFEFEFEFEFEFEFEFEFEFE3B
:101BA000FEFEFEFEFE00000000000000FDFDFDFD4B
:101BB000FDFDFDFDFDFCFCFCFCFCFCFC0000000050
:101BC000000000FCFCFCFCFCFCFCFCFCFCFCFCFC49
:101BD000FCFCFCFCFC2400000000000000000000F5
:101BE0000000B5FDFEFEFEFEFEFEFEFEFEFEFEFE5B
:101BF000FEFEFEFE91000000000000006CFDFDFDF9
:101C0000FDFDFDFDFDFCFCFCFCFCFC6C000000008F
:101C100000000090FCFCFCFCFCFCFCFCFCFCFCFC64
:101C2000FCFCFCFCFC900000000000000000000038
:101C30000048FDFDFEFEFEFEFEFEFEFEFEFEFEFE7A
:101C4000FEFEFEFE240000000000000000FDFDFD81
:101C5000FDFDFDFDFDFCFCFCFCFCFC0000000000AB
:101C600000000024FCFCFCFCFCFCFCFCFCFCFCFC80
:101C7000FCFCFCFCFCFC2400000000000000000058
:101C800000B5FDFDFDFEFEFEFEFEFEFEFEFEFEFEBE
:101C9000FEFEFEFE000000000000000000D9FDFD79
:101CA000FDFDFDFDFCFCFCFCFCFCD8000000000080
:101CB00000000000FCFCFCFCFCFCFCFCFCFCFCFC54
:101CC000FCFCFCFCFCFC900000000000000000009C
:101CD00024FDFDFDFDFDFEFEFEFEFEFEFEFEFEFE03
:101CE000FEFEFED9000000000000000000B5FDFD72
:101CF000FDFDFDFDFCFCFCFCFCFCB4000000000054
:101D000000000000D8FCFCFCFCFCFCFCFCFCFCFC27
:101D1000FCFCFCFCFCFCFC000000000000000000DF
:101D200091FDFDFDFDFDFDFDFEFEFEFEFEFEFEFE47
:101D3000FEFEFDD9000000000000000000B4FDFD23
:101D4000FDFDFDFDFCFCFCFCFCFCB4000000000003
:101D500000000000D8FCFCFCFCFCFCFCFCFCFCFCD7
:101D6000FCFCFCFCFCFCFC6C000000000000000023
:101D7000D9FDFDFDFDFDFDFDFDFDFEFEFEFEFEFEB1
:101D8000FDFDFDD9000000000000000000B4FDFDD5
:101D9000FDFDFDFCFCFCFCFCFCFCB40000000000B4
:101DA00000000000D8FCFCFCFCFCFCFCFCFCFCFC87
:101DB000FCFCFCFCFCFCFCD8000000000000002443
:101DC000FDFDFDFDFDFDFDFDFDFDFDFDFDFDFDFD43
:101DD000FDFDFDFD000000000000000000D9FDFD3C
:101DE000FDFDFDFCFCFCFCFCFCFCD8000000000040
:101DF00000000000FCFCFCFCFCFCFCFCFCFCFCFC13
:101E0000FCFCFCFCFCFCFCFC24000000000000903E
:101E1000FDFDFDFDFDFDFDFDFDFDFDFDFDFDFDFDF2
:101E2000FDFDFDFD240000000000000000FDFDFDA3
:101E3000FDFDFCFCFCFCFCFCFCFCFC0000000000CC
:101E400000000024FCFCFCFCFCFCFCFCFCFCFCFC9E
:101E5000FCFCFCFCFCFCFCFC6C000000000000D95D
:101E6000FDFDFDFDFDFDFDFDFDFDFDFDFDFDFDFDA2
:101E7000FDFDFDFD6C0000000000000048FDFDFDC3
:101E8000FDFCFCFCFCFCFCFCFCFCFC480000000035
:101E90000000006CFCFCFCFCFCFCFCFCFCFCFCFC06
:101EA000FCFCFCFCFCFCFCFCB4000000000000FDA1
:101EB000FDFDFDFDFDFDFDFDFDFDFDFDFDFDFDFD52
:101EC000FDFDFDFDD900000000000000D8FDFDFD76
:101ED000FDFCFCFCFCFCFCFCFCFCFCD80000000055
:101EE000000000D8FCFCFCFCFCFCFCFCFCFCFCFC4A
:101EF000FCFCFCFCFCFCFCFCFC000000000024FDE5
:101F0000FDFDFDFDFDFDFDFDFDFDFDFDFDFDFDFD01
:101F1000FDFDFDFDFD9000000000006CFDFDFDFDE0
:101F2000FCFCFCFCFCFCFCFCFCFCFCFC6C00000075
:101F3000000090FCFCFCFCFCFCFCFCFCFCFCFCFC45
:101F4000FCFCFCFCFCFCFCFCFC24000000006CFD28
:101F5000FDFDFDFDFDFDFDFDFDFDFDFDFDFDFDFDB1
:101F6000FDFDFDFDFDFD6C0000006CFDFDFDFDFCBB
:101F7000FCFCFCFCFCFCFCFCFCFCFCFCFC6C000029
:101F8000006CFCFCFCFCFCFCFCFCFCFCFCFCFCFC1D
:101F9000FCFCFCFCFCFCFCFCFC480000000090FD90
:101FA000FDFDFDFDFDFDFDFDFDFDFDFDFDFDFDFD61
:101FB000FDFDFDFDFDFDFDFDB4D9FDFDFDFDFCFCC0
:101FC000FCFCFCFCFCFCFCFCFCFCFCFCFCFCD8B4BD
:101FD000FCFCFCFCFCFCFCFCFCFCFCFCFCFCFCFC41
:101FE000FCFCFCFCFCFCFCFCFC9000000000B4FDD4
:101FF000FDFDFDFDFDFDFDFDFDFDFDFDFDFDFDFD11
:10200000FDFDFDFDFDFDFDFDFDFDFDFDFDFCFCFC03
:10201000FCFCFCFCFCFCFCFCFCFCFCFCFCFCFCFC00
:10202000FCFCFCFCFCFCFCFCFCFCFCFCFCFCFCFCF0
:10203000FCFCFCFCFCFCFCFCFC9000000000D8FD5F
:10204000FDFDFDFDFDFDFDFDFDFDFDFDFDFDFDFDC0
:10205000FDFDFDFDFDFDFDFDFDFDFDFDFCFCFCFCB4
:10206000FCFCFCFCFCFCFCFCFCFCFCFCFCFCFCFCB0
:10207000FCFCFCFCFCFCFCFCFCFCFCFCFCFCFCFCA0
:10208000FCFCFCFCFCFCFCFCFCB400000000D8FDEB
:10209000FDFDFDFDFDFDFDFDFDFDFDFDFDFDFDFD70
:1020A000FDFDFDFDFDFDFDFDFDFDFCFCFCFCFCFC66
:1020B000FCFCFCFCFCFCFCFCFCFCFCFCFCFCFCFC60
:1020C000FCFCFCFCFCFCFCFCFCFCFCFCFCFCFCFC50
:1020D000FCFCFCFCFCFCFCFCFCD800000000FCFC54
:1020E000FCFDFDFDFDFDFDFDFDFDFDFDFDFDFDFD21
:1020F000FDFDFDFDFDFDFDFDFDFCFCFCFCFCFCFC17
:10210000FCFCFCFCFCFCFCFCFCFCFCFCFCFCFCFC0F
:10211000FCFCFCFCFCFCFCFCFCFCFCFCFCFCFCFCFF
:10212000FCFCFCFCFCFCFCFCFCD800000000FCFC03
:10213000FCFCFCFDFDFDFDFDFDFDFDFDFDFDFDFDD2
:10214000FDFDFDFDFDFDFDFCFCFCFCFCFCFCFCFCC8
:10215000FCFCFCFCFCFCFCFCFCFCFCFCFCFCFCFCBF
:10216000FCFCFCFCFCFCFCFCFCFCFCFCFCFCFCFCAF
:10217000FCFCFCFCFCFCFCFCFCD800000000FCFCB3
:10218000FCFCFCFCFCFCFDFDFDFDFDFDFDFDFDFD85
:10219000FDFDFDFDFCFCFCFCFCFCFCFCFCFCFCFC7B
:1021A000FCFCFCFCFCFCFCFCFCFCFCFCFCFCFCFC6F
:1021B000FCFCFCFCFCFCFCFCFCFCFCFCFCFCFCFC5F
:1021C000FCFCFCFCFCFCFCFCFCD800000000D8FC87
:1021D000FCFCFCFCFCFCFCFCFCFCFCFDFDFDFDFC3B
:1021E000FCFCFCFCFCFCFCFCFCFCFCFCFCFCFCFC2F
:1021F000FCFCFCFCFCFCFCFCFCFCFCFCFCFCFCFC1F
:10220000FCFCFCFCFCFCFCFCFCFCFCFCFCFCFCFC0E
:10221000FCFCFCFCFCFCFCFCFCD800000000D8FC36
:10222000FCFCFCFCFCFCFCFCFCFCFCFCFCFCFCFCEE
:10223000FCFCFCFCFCFCFCFCFCFCFCFCFCFCFCFCDE
:10224000FCFCFCFCFCFCFCFCFCFCFCFCFCFCFCFCCE
:10225000FCFCFCFCFCFCFCFCFCFCFCFCFCFCFCFCBE
:10226000FCFCFCFCFCFCFCFCFCD800000000D8FCE6
:10227000FCFCFCFCFCFCFCFCFCFCFCFCFCFCFCFC9E
:10228000FCFCFCFCFCFCFCFCFCFCFCFCFCFCFCFC8E
:10229000FCFCFCFCFCFCFCFCFCFCFCFCFCFCFCFC7E
:1022A000FCFCFCFCFCFCFCFCFCFCFCFCFCFCFCFC6E
:1022B000FCFCFCFCFCFCFCFCFCB400000000B4FCDE
:1022C000FCFCFCFCFCFCFCFCFCFCFCFCFCFCFCD872
:1022D000FCFCFCFCFCFCFCFCFCFCFCFCFCFCFCFC3E
:1022E000FCFCFCFCFCFCFCFCFCFCFCFCFCFCFCFC2E
:1022F000FCFCFCFCFCFCFCFCD8FCFCFCFCFCFCFC42
:10230000FCFCFCFCFCFCFCFCFC900000000090FCD5
:10231000FCFCFCFCFCFCFCFCFCFCFCFCFCFCFC24D5
:10232000D8FCFCFCFCFCFCFCFCFCFCFCFCFCFCFC11
:10233000FCFCFCFCFCFCFCFCFCFCFCFCFCFCFCFCDD
:10234000FCFCFCFCFCFCFCD824FCFCFCFCFCFCFCC9
:10235000FCFCFCFCFCFCFCFCFC90000000006CFCA9
:10236000FCFCFCFCFCFCFCFCFCFCFCFCFCFCD824A9
:10237000FCFCFCFCFCFCFCFCFCFCFCFCFCFCFCFC9D
:10238000FCFCFCFCFCFCFCFCFCFCFCFCFCFCFCFC8D
:10239000FCFCFCFCFCFCFCFC24D8FCFCFCFCFCFC79
:1023A000FCFCFCFCFCFCFCFCFC480000000024FCE9
:1023B000FCFCFCFCFCFCFCFCFCFCFCFCFCFC24B47D
:1023C000FCFCFCFCFCFCFCFCFCFCFCFCFCFCFCFC4D
:1023D000FCFCFCFCFCFCFCFCFCFCFCFCFCFCFCFC3D
:1023E000FCFCFCFCFCFCFCFCB424FCFCFCFCFCFC4D
:1023F000FCFCFCFCFCFCFCFCFC240000000000FCE1
:10240000FCFCFCFCFCFCFCFCFCFCFCFCFC486CFC50
:10241000FCFCFCFCFCFCFCFCFCFCFCFCFCFCFCFCFC
:10242000FCFCFCFCFCFCFCFCFCFCFCFCFCFCFCFCEC
:10243000FCFCFCFCFCFCFCFCFC6C48FCFCFCFCFC20
:10244000FCFCFCFCFCFCFCFCFC000000000000B4FC
:10245000FCFCFCFCFCFCFCFCFCFCFCB42400FCFCD8
:10246000FCFCFCFCFCFCFCFCFCFCFCFCFCFCFCFCAC
:10247000FCFCFCFCFCFCFCFCFCFCFCFCFCFCFCFC9C
:10248000FCFCFCFCFCFCFCFCFCFC0024B4FCFCFCA8
:10249000FCFCFCFCFCFCFCFCB40000000000006C3C
:1024A000FCFCFCFCFCFCFCD86C48004890006CFC7C
:1024B000FCFCFCFCFCFCFCFCFCFCFCFCFCFCFCFC5C
:1024C000FCFCFCFCFCFCFCFCFCFCFCFCFCFCFCFC4C
:1024D000FCFCFCFCFCFCFCFCFC6C00904800486C28
:1024E000D8FCFCFCFCFCFCFC6C00000000000024A0
:1024F000FCFCFCFCFCFCFCFCB4B4FCFCFC4800D880
:10250000FCFCFCFCFCFCFCFCFCFCFCFCFCFCFCFC0B
:10251000FCFCFCFCFCFCFCFCFCFCFCFCFCFCFCFCFB
:10252000FCFCFCFCFCFCFCFCD80048FCFCFCB4B44F
:10253000FCFCFCFCFCFCFCFC240000000000000097
:10254000D8FCFCFCFCFCFCFCFCFCFCFCFCD80024E7
:10255000FCFCFCFCFCFCFCFCFCFCFCFCFCFCFCFCBB
:10256000FCFCFCFCFCFCFCFCFCFCFCFCFCFCFCFCAB
:10257000FCFCFCFCFCFCFCFC2400D8FCFCFCFCFC93
:10258000FCFCFCFCFCFCFCD800000000000000008F
:102590006CFCFCFCFCFCFCFCFCFCFCFCFCFC6C0097
:1025A0006CFCFCFCFCFCFCFCFCFCFCFCFCFCFCFCFB
:1025B000FCFCFCFCFCFCFCFCFCFCFCFCFCFCFCFC5B
:1025C000FCFCFCFCFCFCFC6C006CFCFCFCFCFCFC67
:1025D000FCFCFCFCFCFCFC6C0000000000000000AB
:1025E00000FCFCFCFCFCFCFCFCFCFCFCFCFCFC0023
:1025F0000090FCFCFCFCFCFCFCFCFCFCFCFCFCFC83
:10260000FCFCFCFCFCFCFCFCFCFCFCFCFCFCFCFC0A
:10261000FCFCFCFCFCFC900000FCFCFCFCFCFCFC5E
:10262000FCFCFCFCFCFCFC000000000000000000C6
:102630000090FCFCFCFCFCFCFCFCFCFCFCFCFCD866
:10264000000090FCFCFCFCFCFCFCFCFCFCFCFCFC2E
:10265000FCFCFCFCFCFCFCFCFCFCFCFCFCFCFCFCBA
:10266000FCFCFCFCFC900000D8FCFCFCFCFCFCFC32
:10267000FCFCFCFCFCFC90000000000000000000E2
:102680000024FCFCFCFCFCFCFCFCFCFCFCFCFCFC5E
:1026900090000090FCFCFCFCFCFCFCFCFCFCFCFC4A
:1026A000FCFCFCFCFCFCFCFCFCFCFCFCFCFCFCFC6A
:1026B000FCFCFCFC90000090FCFCFCFCFCFCFCFC2A
:1026C000FCFCFCFCFCFC24000000000000000000FE
:1026D000000090FCFCFCFCFCFCFCFCFCFCFCFCFC9E
:1026E000FC6C000048FCFCFCFCFCFCFCFCFCFCFC66
:1026F000FCFCFCFCFCFCFCFCFCFCFCFCFCFCFCFC1A
:10270000FCFCFC4800006CFCFCFCFCFCFCFCFCFC45
:10271000FCFCFCFCFC90000000000000000000003D
:10272000000024FCFCFCFCFCFCFCFCFCFCFCFCFCB9
:10273000FCFC6C000024D8FCFCFCFCFCFCFCFCFC5D
:10274000FCFCFCFCFCFCFCFCFCFCFCFCFCFCFCFCC9
:10275000FCD82400006CFCFCFCFCFCFCFCFCFCFC3D
:10276000FCFCFCFCFC240000000000000000000059
:1027700000000090FCFCFCFCFCFCFCFCFCFCFCFCF9
:10278000FCFCFC900000006CFCFCFCFCFCFCFCFC79
:10279000FCFCFCFCFCFCFCFCFCFCFCFCFCFCFCFC79
:1027A0006C00000090FCFCFCFCFCFCFCFCFCFCFC59
:1027B000FCFCFCFC90000000000000000000000099
:1027C00000000000D8FCFCFCFCFCFCFCFCFCFCFC5D
:1027D000FCFCFCFCD8000000006CD8FCFCFCFCFC01
:1027E000FCFCFCFCFCFCFCFCFCFCFCFCFCD86C00D9
:1027F000000000D8FCFCFCFCFCFCFCFCFCFCFCFC31
:10280000FCFCFCD8000000000000000000000000FC
:102810000000000048FCFCFCFCFCFCFCFCFCFCFC9C
:10282000FCFCFCFCFCFC6C000000002490D8FCFCD0
:10283000FCFCFCFCFCFCFCFCFCFCD8902400000034
:10284000006CFCFCFCFCFCFCFCFCFCFCFCFCFCFC54
:10285000FCFCFC480000000000000000000000003C
:10286000000000000090FCFCFCFCFCFCFCFCFCFC00
:10287000FCFCFCFCFCFCFCD84800000000002448E8
:102880006C90B4B4B4B4906C4824000000000048CC
:10289000D8FCFCFCFCFCFCFCFCFCFCFCFCFCFCFC9C
:1028A000FCFC9000000000000000000000000000A0
:1028B000000000000000B4FCFCFCFCFCFCFCFCFC88
:1028C000FCFCFCFCFCFCFCFCFCD84800000000000C
:1028D0000000000000000000000000000048D8FCDC
:1028E000FCFCFCFCFCFCFCFCFCFCFCFCFCFCFCFC28
:1028F000FCB4000000000000000000000000000028
:1029000000000000000000D8FCFCFCFCFCFCFCFC0F
:10291000FCFCFCFCFCFCFCFCFCFCFCFCB4482400C7
:102920000000000000000000002448B4FCFCFCFC97
:10293000FCFCFCFCFCFCFCFCFCFCFCFCFCFCFCFCD7
:10294000D8000000000000000000000000000000AF
:102950000000000000000024D8FCFCFCFCFCFCFC97
:10296000FCFCFCFCFCFCFCFCFCFCFCFCFCFCFCFCA7
:10297000D8B490909090B4D8FCFCFCFCFCFCFCFC1F
:10298000FCFCFCFCFCFCFCFCFCFCFCFCFCFCFCD8AB
:102990002400000000000000000000000000000013
:1029A000000000000000000024D8FCFCFCFCFCFC43
:1029B000FCFCFCFCFCFCFCFCFCFCFCFCFCFCFCFC57
:1029C000FCFCFCFCFCFCFCFCFCFCFCFCFCFCFCFC47
:1029D000FCFCFCFCFCFCFCFCFCFCFCFCFCFCD82433
:1029E00000000000000000000000000000000000E7
:1029F00000000000000000000024D8FCFCFCFCFCEF
:102A0000FCFCFCFCFCFCFCFCFCFCFCFCFCFCFCFC06
:102A1000FCFCFCFCFCFCFCFCFCFCFCFCFCFCFCFCF6
:102A2000FCFCFCFCFCFCFCFCFCFCFCFCFCD82400DE
:102A30000000000000000000000000000000000096
:102A40000000000000000000000024D8FCFCFCFC9A
:102A5000FCFCFCFCFCFCFCFCFCFCFCFCFCFCFCFCB6
:102A6000FCFCFCFCFCFCFCFCFCFCFCFCFCFCFCFCA6
:102A7000FCFCFCFCFCFCFCFCFCFCFCFCD82400008A
:102A80000000000000000000000000000000000046
:102A9000000000000000000000000000B4FCFCFC8E
:102AA000FCFCFCFCFCFCFCFCFCFCFCFCFCFCFCFC66
:102AB000FCFCFCFCFCFCFCFCFCFCFCFCFCFCFCFC56
:102AC000FCFCFCFCFCFCFCFCFCFCFCB4000000007E
:102AD00000000000000000000000000000000000F6
:102AE0000000000000000000000000000090FCFC5E
:102AF000FCFCFCFCFCFCFCFCFCFCFCFCFCFCFCFC16
:102B0000FCFCFCFCFCFCFCFCFCFCFCFCFCFCFCFC05
:102B1000FCFCFCFCFCFCFCFCFCFC9000000000004D
:102B200000000000000000000000000000000000A5
:102B3000000000000000000000000000000048D875
:102B4000FCFCFCFCFCFCFCFCFCFCFCFCFCFCFCFCC5
:102B5000FCFCFCFCFCFCFCFCFCFCFCFCFCFCFCFCB5
:102B6000FCFCFCFCFCFCFCFCD82400000000000089
:102B70000000000000000000000000000000000055
:102B80000000000000000000000000000000000045
:102B900090FCFCFCFCFCFCFCFCFCFCFCFCFCFCFCE1
:102BA000FCFCFCFCFCFCFCFCFCFCFCFCFCFCFCFC65
:102BB000FCFCFCFCFCFCFC900000000000000000A1
:102BC0000000000000000000000000000000000005
:102BD00000000000000000000000000000000000F5
:102BE000002490FCFCFCFCFCFCFCFCFCFCFCFCFC65
:102BF000FCFCFCFCFCFCFCFCFCFCFCFCFCFCFCFC15
:102C0000FCFCFCFCFC902400000000000000000024
:102C100000000000000000000000000000000000B4
:102C200000000000000000000000000000000000A4
:102C30000000002490FCFCFCFCFCFCFCFCFCFCFC0C
:102C4000FCFCFCFCFCFCFCFCFCFCFCFCFCFCFCFCC4
:102C5000FCFCFC90240000000000000000000000CC
:102C60000000000000000000000000000000000064
:102C70000000000000000000000000000000000054
:102C80000000000000006CD8FCFCFCFCFCFCFCFC20
:102C9000FCFCFCFCFCFCFCFCFCFCFCFCFCFCFCFC74
:102CA000D86C0000000000000000000000000000E0
:102CB0000000000000000000000000000000000014
:102CC0000000000000000000000000000000000004
:102CD0000000000000000000246CB4FCFCFCFCFCC4
:102CE000FCFCFCFCFCFCFCFCFCFCFCFCFCB46C24D4
:102CF00000000000000000000000000000000000D4
:102D000000000000000000000000000000000000C3
:102D100000000000000000000000000000000000B3
:102D20000000000000000000000000002448909017
:102D3000B4D8D8D8D8D8D8B490904824000000008F
:102D40000000000000000000000000000000000083
:102D50000000000000000000000000000000000073
:102D60000000000000000000000000000000000063
:102D70000000000000000000000000000000000053
:102D80000000000000000000000000000000000043
:102D90000000000000000000000000000000000033
:102DA0000000000000000000000000000000000023
:102DB0000000000000000000000000000000000013
:102DC0000000000000000000000000000000000003
:102DD00000000000000000000000000000000000F3
:102DE00000000000000000000000000000000000E3
:102DF000000000000000000000000000292929292F
:102E000049494D4D29496969486869898D8D8D8D7C
:102E1000ADADADADB1B1B1ADB1D2D2D2D2D2D2D1D0
:102E2000D1D1D1D1D1D1D1D1B1B1B18D8D6D6D6DA6
:102E30006D6D4D4D48494C6D716D6D6C4C48284819
:102E40006D6D4D48484828486D4D484D29294D4DD8
:102E50004D29294929496D484869898D8D8DADAD28
:102E6000ADADADB1D1D1D2D1D2D2D2D2D2D2D2D2D5
:102E7000D2D1D1D1D1D1D1D1D1B1B1AD8D8D8D6DD5
:102E80006D6D4D4D49486D6D6D6D6D4C4C48484DA7
:102E90006D484D484848284C4D4D49484D494D498D
:102EA00029292929294969486889898D8DADADADC0
:102EB000ADADB1D1D1D2D2D2D2D6D6D6D6D6D2D24B
:102EC000D2D2D1D1D1D1D1D1D1B1B1B1AD8D8D8D40
:102ED0006D6D6D4D49486D6D6D6D6D4C4848486D1B
:102EE0006D494948484928484D4848484D4D4D4D41
:102EF0004D29292949696868698D8D8DADADADADC4
:102F0000B1B1B1D1D2D2D2D2D2D6D6D6D6D6D6D6E9
:102F1000D6D6D2D1D1D1D1D1D1B1B1B1B18D8D8DE2
:102F20008D6D6D4D494D6D6C6D4D6D4D48484D6DC0
:102F30006D6D484848482848484848484D4D4D4DD3
:102F40004D4D4D49496948688D8D8DADADADADB1E3
:102F5000B1D1D1D1D2D2D2D6D6D6D6D6D6D6F6F611
:102F6000F6F6D6D2D2D1D1D1D1B1B1B1B1B18D8D28
:102F70008D6D6D4D484C6D6D4D484D4D48484D4DD6
:102F80004D4D4C484848484C484948484D4D4D4D9A
:102F90004D4D4D4D696948698D8D8DADADADADD14E
:102FA000D1D1D1D2D2D2D2D2D6D6D6D6D6F6F6F684
:102FB000F6D6D6D2D2D1D1D1D1B1B1B1B1AD8D8DFC
:102FC0008D8D6D6D496D6D6D4D484D4D48484D6D04
:102FD0004C6D6D4848484D4C4848484D4D4D4D2925
:102FE0004949494D6D69688D8D8D8DADADB1D1D19A
:102FF000D1D1D2D2D6D2D2D2D6D2D6D6D6F6F6F633
:10300000F6D6D6D6D2D2D1D1D1B1B1ADB1B18D8DA6
:103010008D8D6D6D4D6D6D6D48484D4C4848484CDB
:103020004C6D6D4928484C4C48484C6D49492929FC
:10303000494929496D69698D8D8DADADADB1D1D14C
:10304000D1D1D2D2D2D6D2D2D6D6D6D6D6F6F6F6DE
:10305000F6D6D6D6D2D2D1D1D1B1B1B1B1B1B18D2E
:103060008D8D6D6D6D6D6D6D4D484D6D6D4D6D6DD5
:103070006D6D6D492848484848484C6D29492929B3
:10308000292929294D696989898D8DADADB1D1D1A4
:10309000D1D2D2D2D2D6D2D6D6D6D6D6F6F6F6F669
:1030A000F6D6D6D6D6D2D1D1D1B1B1B1B1B1B1B2B5
:1030B00091918D6D4D4D6D6D6D48486D6D4C4C48C9
:1030C000486D6D4828484C484828484D2929294DC5
:1030D0004D29292969696989898D8DADADB1D1B134
:1030E000D1D2D2D2D6D6D6D6D6D6D6F6F6F6F6F6F1
:1030F000F6D6D6D6D2D2D2D1D1D1B1B1B1B1B1B248
:10310000B291916D6D49496D4D484D6D6D4D4D4D6F
:103110006C6C6C48484848484848484C292949291B
:10312000492929496D696989898D8DADADB1D1D1A3
:10313000D1D1D2D6D6D6D6D2D6D6D6F6F6F6F6F6A1
:10314000F6F6D6D6D6D2D2D2D1D1B1B1B1B1B1B2D2
:10315000B2B2918D6D4D4C6D4C4C6D6D6D6D486D79
:103160006D6D6C484D48284848484D4D29292929FE
:10317000494929296D6D69898D8D8DADADADB1B18F
:10318000D1D2D2D6D6D6D6D6D6D2D6F6F6F6F6F650
:10319000F6F6D6D6D6D2D2D2D1D1B1B1B1B1B2B281
:1031A000B2B29191916D6D6D4D6D6D6D6D6D484CBF
:1031B0006D6C48484C4848284928484C29292929F9
:1031C000292929296D6D69898D8D8DADADADB1D15F
:1031D000D1D2D2D6D6D6D6D6D6D2D6F6F6F6F6F600
:1031E000F6F6F6F6D6D2D2D2D1D1B1B1B1B1B2B2F1
:1031F000B2B2B2918D6D6D6D6D6D6D4D6D6D6D6D0C
:103200006D6D4D48484848484828484C4929292967
:10321000292429496D6D69898D8D8DADADADB1D1F3
:10322000D1D2D2D6D6D6D6D6D6D6D6F6F6F6F6F6AB
:10323000F6F6F6F6D6D2D2D2D2D1B1B1B1B1B2B69B
:10324000B6B2B291916D4C6C716D6D6D6D6D6D48D6
:103250006D4D48484848484848484D4C49492929F7
:1032600029242949696D69898D8D8DADADADD1D187
:10327000D1D2D2D6D6D6D6D6D6D6F6F6F6F6F6F63B
:10328000F6F6F6F6F6F6D6D2D2D1B1B1B1B1B1B208
:10329000B2B2B291916D6D6D6D6D6D6D6D6D4D488C
:1032A0004C48484849282848482828494949494914
:1032B00049494949696D69898D8DADADADADD1D1B2
:1032C000D1D2D2D6D6D6D6D6D2D2F6F6F6F6F6F6F3
:1032D000F6F6F6F6F6D6D6D6D2D2D1B1D1D1B1B174
:1032E000B2B2B2B2916D6D6D6C6D6D6D6D6D6D4DF7
:1032F0004D4D494848282848482428486D6D6D4957
:103300006D4949496D8D8D898D8DADADADADD1D1F5
:10331000D2D2D2D6D6D2D6D6D2D6D6D6F6F6F6D601
:10332000D2D2D2D2D2D2D1D1D2D2D1B1B1D1B1B105
:10333000B1B2B29292916D6C6C6D6D6D6D6D4D49C7
:103340004D4D4848492824482828486D6D6D6D6DBD
:103350006D6D6D6D8D8D8D8D8D8DADADADADB1D135
:10336000D1D2D2D2D2D2D6D6D2D2D2D2D6D2D2B153
:10337000AD8D8D8DB1B1ADADB1B1D1D1B1D1D1B135
:10338000B1B1B291918D6D4C6C6C6D6D6D6D4D499F
:10339000494928484948284848484C6D6D8D9191C5
:1033A0006D6D6D8D8D6D6D8D8D8DADADADADB1D105
:1033B000D2D2D2D2D2D1D2D2D2D2D2D1ADAD8D89C7
:1033C0006868898D8DADADAD8DADB1D2D1D1D1B1A2
:1033D000B1B1B2B28DAD8D6D6D6D6D6C6C6D6D49B1
:1033E0004D4828494949284848484D4C9291919167
:1033F00091919191918D6D8D8DADADADB1ADB1B11D
:10340000D1D2D1D1D2D1D2D2D2ADADADAD8D89890B
:1034100089ADB1D2D2D2D2D1ADADADB1D1D1D1B1D0
:10342000B1B1B1B1ADD1A98D6D6D6C6C6D6D6D6CBF
:103430006D4948494948484949484C48D6B6B6B20A
:10344000B2B2B2B6918D6D8D8DADADADADADADAD50
:10345000ADADADADD1D1D2D6D6D1ADADAD8D8DADF9
:10346000898D8D8DADB1D1D2D1D1B1B1D1D1D1D1E3
:10347000AD918DB1D1CDA9AD6D6C6D6D4D4C6D4DD6
:10348000494D49484948492849494D48DADBFBDB61
:10349000DAB6D6B6928D6D8D8D8D8D8D89696989DF
:1034A000898D8DADADADD2F6F6D2D1ADADADAD89D4
:1034B000898D48484869898DADD1D1D1D1D1D1D13B
:1034C000B18D8DB1D2CDA9AD6D4C48484C484D4819
:1034D000484849284948282828484848DADADADBA1
:1034E000FFFFFFFFDBB66D8D8D89696864646464DE
:1034F000686889898DADD2F6F6F6D2B1ADADAD8DE5
:103500008DB269494969B28D8DADD1D1D1D1D1D1B9
:10351000B1AD8DB1D1D2ADAD6D4848484C4D4D4C9B
:10352000484948284928282828494828FBFBDADA4E
:10353000DADAFBFFFFDB6D69686868898989696889
:103540006868686888ADD1F6F6F6D2D2B1B1ADAD93
:10355000B1B28D69698DD2B1ADADB1D1D1D2D1D178
:10356000B1B1ADB1D1D2CDAD8D6D4D4C4C4C4C4CBB
:103570004D4928284928282428282828FFFFFFFF0C
:10358000FBDADADAFFFB6D6868898D8D894844447F
:103590006989896968ADD1D2F6F2D2D2D1D2B1AD02
:1035A000ADB1B1ADADD1D1D1D2D6D2D2D2D2D1D1AD
:1035B000D1B1ADB1D1D1D1AD8D484C4C4849484C79
:1035C000482824284928282428282828FFFFFFFFE6
:1035D000FFFFFFFFFBDA8D68698D89684824494940
:1035E000698D898989ADCDD2F6F2D1D2D2D2D2D22B
:1035F000B1D1D2D2D2D2D2D2F6D6D6D6D2D2D1D19F
:10360000D1B1B1ADADCDD1D18D486C6C4C4C4D4DDF
:103610004D2824282928242424282828FFFFFFFFB8
:10362000FFFFFFFFFFB26969698964696D4844441F
:10363000698D898D89ADCDD2F6F2D1D2D2D2D2D2D6
:10364000D2D2D2D2D2D2D6F6F6F6F6D6D2D2D1D1C4
:10365000B1B1B1B1ADCDCDD2B16D6C6D6D48484851
:1036600048282428282828242428484CFFFFFFFF26
:10367000FFFFFFFFFF8D898D696964698D6D698D1D
:103680008D8D8D8D89ADD1D2F6F2D1F2F2F2D2D6F6
:10369000D2D2D2F6F6F6F6F6F6F6F6D6D2D2D1B108
:1036A000ADB1B1D2ADCDCDD1B14948484848482897
:1036B00028282929242828282848486DDBDBFFFFF3
:1036C000FFFFFFFFFFD6898D6989688989898D8D04
:1036D000ADAD8D8D89ADD1F6F6D2D2F2F2F2F2F621
:1036E000F6D6D2D6F6F6F6F6F6F6F6F6D2D2D1B190
:1036F000ADB1B1D2D1ADCDD1B14948494848484C1E
:103700004D2828292424284848486C6DDBDBFFFB22
:10371000FFFFFFFFFFFB898D89898989898DADAD09
:10372000ADAD8D8D89ADD1F6F6D2D2F2F2F2F2F6D0
:10373000F6F6F6F6F6F6F6F6F6F6F6F6D2D1D1B1DC
:10374000B1B1B1D2D2ADD1D18D6D6D4D4848484C9B
:103750004D28282929244948484D6D6DBBDBDBDB0A
:10376000FFFFDFDBFFFFB68D898D8D8DADADADAD7C
:10377000ADADAD8D89ADD1F6F6D2D2F2F2F2F2F660
:10378000F6F6F6F6F6F2F6F6F6F6D2D2D2D1D1B1D8
:10379000B1B1B1D1ADD1D1D26D4948484848484CBA
:1037A0006D4D284928492928484D4C6DDBDBB7DB96
:1037B000DBDBFFFFFBFFDB8D8D8D8D8DADADADAD0B
:1037C000ADADAD8D89ADD1F6F6D2D2D2D2D2F2F670
:1037D000F6F6F6F6F6F6F6F6F2F2D2D2D2D1D1B18C
:1037E000B1B1ADB1D1D2D2B2694848484948484C8C
:1037F0006D4D4D2828282428484C6C6DDBDBDBDB25
:10380000DBDBDBD7DBFBDB8D8D8D8DADADADADAD0A
:10381000ADADAD8D89ADD1F6F6D2D2D2D2D2D2D263
:10382000F6F6F6F6F6F6F6F6F6F2D2D2D1D1D1B138
:10383000B1B1ADB1D2D6D28D4948484D48484C4C73
:103840004C4D49282824242848484C6DD6DBDBDB26
:10385000DBDBDBDBDBDBD68D8D8DADADADADADADBB
:10386000ADADAD8D89ADD2F6F6F2D2D2F2D2D2D2D2
:10387000D2F6F6F6F6F6F6F6F6F2F2D2D1D1D1B1EC
:10388000B1B1ADB1D2D2B26949484848484D4C486F
:103890004D4D28282828282828484848DBB6B6DB7C
:1038A000DBDBFBDBDBDBDBB28D8DADADADADADAD21
:1038B000ADADAD8D89ADD2F6F6D2D2F2F2F2D2D262
:1038C000D2D2F2F6F6F6F6F6F6F2D2D2D1D1D1B1E4
:1038D000B1B1B1D1D6D26D4949494848484D4C4C57
:1038E0006D4D28282828482824484828FFFBDBDB82
:1038F000B6B6B7DBDBFFFFD68D898DADADADADAD17
:10390000ADADAD8D8DADD1F2F6D2D2D2D2D2D1D174
:10391000D2D2D2D2F2F6F2F2F2D2D2D2D1D1D1B107
:10392000B1B1B1B1D2B149494969486D6D6D6D6DA3
:103930004D4948482828482824284828FFFFFFFFE9
:10394000FFFBDBDBDBDBFFFB8D898D8DADADADAD33
:10395000ADADAD8989ADADD1D2D1D2ADADADCDCD0D
:10396000D2D2D2D2D2D2F2F2D2D2D2D1D1D1D1D1FC
:10397000B1ADADB1B16D4949496969696D6D6D4DC3
:103980004948484C484D484848484828FFFBFFFFF5
:10399000FFFFFFFFFFFFFFFF91898D8D8DADADAD67
:1039A000ADADAD89898DADADADADAD89ADADADD2AE
:1039B000D2D2D2D1D2D2D2D2D2D2D2D1D1D1D1D1ED
:1039C000B1B1ADB1B6918D8D6D6D6D69696D6D4D96
:1039D0004D48484C4C4D484849484828FFFFFFFF98
:1039E000FFFFFFFFFFFFFFFFB68D898D8DADADADF2
:1039F000ADADADAD8989898989ADADADADADD2F241
:103A0000F2D2D2D2D1D2D2D2D2D2D1D1D1D1D1D17D
:103A1000B1B1ADB1B6B6B6B6B2B1918D6D6D6D49FD
:103A200049484C4C4C4D484848484848DBDBFFFF70
:103A3000FFFFFFFFFFFFFFFFFB8D898D8DADADAD5C
:103A4000ADADADAD898968898DADADD2D1D2D2F69B
:103A5000F6F6D2D2D1D1D2D2D1D1D1D1D1D1D1D108
:103A6000B1B1ADB1B6B2B6B6D6B6B6B2916D696DFA
:103A70006D696D4C6D4D484848484848BBBBDBDB21
:103A8000FFFFFFFFFFFFFFFFFFB689898DADADADE3
:103A9000ADADADAD89896889ADADADD2D2D2D2D24E
:103AA000D2F2F6D2D2D1D2D1D1D1D1D1D1D1D1D1BC
:103AB000B1ADADADD6D6B6B6B6B6D6B6B6919191D5
:103AC000916D6D6D6D4D48484848484DBBBBBBBBC3
:103AD000DBDBDBDBFBFFFFFFFFFB8D898DADADADDE
:103AE000ADADAD8989898989ADADADB1D2D2D2D222
:103AF000D2D2D2D2D2D2D1D1D1D2D1D1D1D1D1D1AF
:103B0000B1ADADADD6DADAD6D6B6B6B6D6B6B6D68D
:103B1000D6B2B16D6D48484D4C4848489696969B34
:103B2000BBBBDBDBDBDBDFFBFBFFD689898DADAD10
:103B3000ADADAD89898989ADADADADADD2D2D2D2B1
:103B4000D2D2D2D2D2D2D2D1D1D1D1D1D1D1D1B17E
:103B5000B1ADADADDADADADADADADAD6B6B692B62D
:103B6000D6D6D6916D6D6D6D6D4D48489B9B9B9AD9
:103B70009A9696BABBBBDBDBDBDBDA69898DADAD30
:103B8000ADADAD89898989ADCDCDADD1D2D2D2D2FD
:103B9000D2D2D2D1D2D2D1D1D1D1D1D1D1D1D1B130
:103BA000B1ADADADD6DAFAFBFBFADADADAD6B6B6F3
:103BB000B6B6D6B6B2B6B2916D4D484D96969A96B7
:103BC000969696969696BABBBBDBDB8D898D8DADAE
:103BD000ADAD8D89898989ADCDD1CDCDCDD1D2D2B3
:103BE000D2D2B1ADADB1B1D1D1D1D1D1D1D1D1B18B
:103BF000ADAD8DADB2FBFBFADADAD6DAFBFBFBDA60
:103C0000D6D6B6B6B6D6D6D6B28D6D6D7276969637
:103C100096969696969696969ABBBB9189898DAD07
:103C2000AD8D898989898989A9ADADA9A9A9A9A9D4
:103C3000ADADADADADADB1D1D1D1D1D1D1D1B1ADB0
:103C4000AD8D8DAD6992FBFADADAD6D6DADADADA48
:103C5000DADADADAD6D6D6D6B6B6B6B27272727604
:103C60007676969BBB9B9B9B9B9ABA9268898DADFF
:103C7000AD8D8D89898989898989A9A9A9A9898908
:103C8000898989ADADADB1D1D1D1D1D1D1B1ADADF0
:103C9000AD8DADAD6925B2FFFFFFFBFADADAD6D6FE
:103CA000B6B6D6DADAFADADAD6D6B6B69676727268
:103CB0007272527276969B9BBBBBBBBA69888DAD04
:103CC000AD8D8D896864646464848589A9ADCDD225
:103CD000D2D2D2D2D1D1B1D1D1D1D1D1B1ADADAD7C
:103CE000AD8DADAD6D242592B6DBFFFFFFFADAD6C0
:103CF000D6B6B6B6B6D6DAFBFBDADAD6969696968E
:103D0000969676767676769A9A9BBBBB8D68898DE9
:103D1000AD8D8D8D8968646489A9ADCECED2D2D2A5
:103D2000D2D2D2D2D1D1D1D1D1B1B1B1B1ADADAD6B
:103D30008D8DADAD8D24252949496ED6FFFFFADA68
:103D4000DADAD6D6D6D6D6D6DAFBFBFB7276767220
:103D5000969696967676769A9B9B9BBBB669888D4F
:103D6000ADAD8D8D8989898989A9ADD2D2D2D2D2C2
:103D7000D1D1D1D1D1D1D1B1D1B1ADB1ADADADAD47
:103D80008DADADB1AD242525294929296DDBFFFF76
:103D9000FFFBFADADADADADADADADADA969696764D
:103DA000969696969696767676769A9BBB6D688969
:103DB0008DAD8D8D89898889A9ADADD2D2D2D1D171
:103DC000D1D1D1D1D1D1D1D1D1B1B1ADADADAD8DF7
:103DD0008DADADB1AD45252525492925254992DB78
:103DE000FFFFFFFFFFFBFADADAD6D6D676767676D5
:103DF00076769696979B9696969676969649686866
:103E0000898D8D8D8989888989A9ADADADADADAD1F
:103E1000ADB1D1D1D1D1D1D1D1B1B1ADADAD8D8D0A
:103E2000ADADB1B1AD49242525292929252525493F
:103E30006EDAFFFFFFFFFBFBFBFAFAFA9696767647
:103E40007676767676969696969A9B9B4D206868BF
:103E5000888D8D8988888988898989898989ADAD86
:103E6000ADD1D1D1D1D1D1D1D1B1ADADAD8D8D8DBE
:103E7000ADB1B1B1AD6924252525292929252525EF
:103E800025296DDBFFFFFFFFFFFFFFFB969797974D
:103E9000969676767676767676767672040068688A
:103EA000688889898888898989898D8DADADB1D2E5
:103EB000D2D2D2D2D2D2D1D1B1B1ADAD8D8D8DAD64
:103EC000B1B1D1B1AD69242525252529292525257F
:103ED0002525252992DBFFFFFFFFFFFB76969696AF
:103EE000969696969696969696964E2500006868B3
:103EF000686888898989898DADADADADADD1D2D2E3
:103F0000D2D2D2D2D2D2D1B1B1ADAD8D898DADAD3B
:103F1000B1B1D1B1AD8D2425252525252525252512
:103F200025252525254992DAFFFFFFFF96969696CF
:103F300096969696967676767229250000006868A1
:103F40006868688889898DADAD8DADADADD2D2D2AE
:103F5000D2D2D2D2D2D1D1B1AD8D8D898DADADB10C
:103F6000B1B1D1B1B18D24252525252525252525BE
:103F700025252525052525296EB6FBFF96969696BF
:103F8000969696969696724D2525040000006489B3
:103F900089686868888989AD8D89ADADD1D2D2D262
:103FA000D2D2D2D2D1D1B1AD8D8D898D8DADADB101
:103FB000B1D1D1B1B18D242425252525252525254F
:103FC0002525252525250525252949929696969668
:103FD00096969696764D2525252500000000648945
:103FE000896868646889898D8989ADADD1D2D2D25A
:103FF000D2D2D2D1D1B1AD8D89898D8DADADADADDE
:10400000B1D1B1B1B18D242425252525252525251E
:104010002525252525252525252525299696969688
:104020009676724D2505042425040000002044895D
:104030008989686464688989898DADADB1B1D2D24E
:10404000D2D1B1B1B1AD8D89898D8DADADADADB1EF
:10405000B1D1B1B1B18D24242525252525252525CE
:10406000252525252525052525252525969696965C
:1040700096722500250404042400000000204489D1
:1040800089898968646888898D8D8DADADB1B1B13C
:10409000ADADB1ADAD8D89898D8DADADADADADB1F0
:1040A000B1D1B1B1B18D20242525252525252505A2
:1040B0002525252525252505052525259696967250
:1040C0004D040004040404040400000000204469BA
:1040D00089898989686468898D8D8D8DADADADAD17
:1040E000ADAD8D8D8989898DADADADADADB1B1B1C0
:1040F000D1B1B1B1B18D2024252525252525252532
:10410000252505252505290505252505964E29057D
:1041100000000404040404040000000000204468BB
:1041200089898D898968686869898D8D8DADAD8D26
:104130008D8D8989898D8DADADADADADADADB1B193
:10414000B1B1B1B1AD6900242525250525050525A9
:104150002525252505052525050505052525050014
:10416000000400040000000000000000002044687B
:1041700089898D8D8989686868696989898989894A
:104180008989898D8DADADB1B1B1B1B1ADADADB1F3
:10419000B1B1B1ADAD69202425252525050505253D
:1041A000250505250505252504050505050500004A
:1041B0000404040400000000000000000020446823
:1041C00089898D8D8D89896868686968686868895A
:1041D000898D8DADADADB1B1B1B1B1ADADADADB15B
:1041E000B1B1B1ADAD69200425052505050505254D
:1041F000250505050525050004040505050004043D
:1042000004040404000000000000000000204464D6
:1042100069898D8D8D8989696868698989898D8D9C
:10422000ADADB1B1B1B1B1B1B1ADADADADADADADA2
:10423000ADB1ADADAD6820040525252525050525C5
:1042400005050505252500000004040504000000FF
:1042500000000404000000000000000000004464AE
:104260006889898D8D8D8D89696869898D8D8DAD00
:10427000B1B1B1B1B1B1B1B1B1B1ADADADADADAD46
:10428000ADB1ADAD8D6820040525252505052505B5
:1042900005050505050000000004040404000000F5
:1042A000000004040000000000000000000044645E
:1042B0006889898D8D8D8D89896968898D8DADAD70
:1042C000B1B1B1B1B1B1B1B1B1ADADADADADADADFA
:1042D000B1ADADAD8D44200404052505252525058A
:1042E00005050505040000000004040400000000AA
:1042F000000004000000000000000000000024682E
:1043000064698989898D8D8D89696869898DADAD6B
:10431000B1B1B2B2B1B1B1B1B1ADADADADADADB1A3
:10432000B1ADADAD8944200405252505050505057C
:10433000050505050000040000000404000000005D
:1043400000000000000000000000000000002468E1
:1043500064688989898D8D8D8D896968898D8DAD18
:10436000B1B1B2B2B1B1B1B1ADADADADADADB1B153
:10437000ADADADAD894824040525250525250525C8
:104380000505050400000000000004040000000012
:104390000000000000000000000000000000206598
:1043A00068688989898D8D8D8D8D896868898DADC5
:1043B000B1B1B2B1B1B1B1ADADADADADADB1B1B104
:1043C000ADADAD8D89442004052525252525252560
:1043D00005050500000000000000000400000000CA
:1043E0000000000000000000000000000000004489
:1043F00068696989898D8D8D8D8D8D8969688DAD8F
:10440000B1B1B1B1ADADADADADADADB1B1B1B1B1B8
:10441000ADADAD8D8944000405252525252505254F
:10442000050500000000000400000000000000007E
:104430000000000000000000000000000000004438
:1044400069696989898D8D8D8D8D8D8D8969688D5D
:10445000ADB1B1B1ADADADADADADADB1B1B1B1AD70
:10446000ADADAD8D6944000425052525252505251F
:10447000250000000000000404000000040000000B
:104480000000040000000000000000000000002008
:104490006969698989898D8D8D8D8D8D8D898989D0
:1044A0008DADADADADADADADADADADB1B1B1ADAD50
:1044B000ADAD8D8969240004252525252505250513
:1044C00000000000000000050500000000000000E2
:1044D00000000404040000000000000000000000D0
:1044E000456969898989898D8D8D8D8D8D8D8989A4
:1044F00089898D8D8DADADADADADADB1ADADADAD90
:10450000ADAD8D89692404000525252525250500E7
:104510000000000000000004050000000000000092
:104520000000040004000000000000000000000083
:1045300044698989898989898D8D8D8D8D8D8D8934
:1045400089898D8D8DADADADADADADB1ADADADAD3F
:10455000ADAD8D89692424040525252505000000BD
:10456000000004000000000405000000000000003E
:104570000000040004000000000000000000000033
:104580002469898989898989898D8D8D8D8D8D8D04
:10459000898D8D8D8DADADADADADB1ADADADADADEB
:1045A000ADAD8D89692004250525040000000000BB
:1045B00000000404000000040500000000000000EA
:1045C00000000000000400000000000000000000E7
:1045D00000698989898989898989898D8D8D8D8DE0
:1045E0008D8D8D8D8D8D8DADADADADADADADADADDB
:1045F000ADAD8D89490000052500000004000000D4
:104600000000040500000000040400000000000099
:10461000000000000000000000000000000000009A
:1046200000448989898989898989898D8D8D8D8DB4
:104630008D8D8D8D8D8D8D8DADADADADADADADADAA
:10464000ADAD898924240004252500040400000060
:104650000000040500000000040404000000000045
:10466000000000000000000000000000000000004A
:10467000002069898D8989898989898D8D8D8D8DA4
:104680008D8D8D898D8D8D8DADADADADADADADAD5E
:10469000ADADAD690000040404252505050000004A
:1046A00000000404000000000004000000000000FE
:1046B00000000000000000000000000000000000FA
:1046C000000024898D8D8D89898989898D8D8D8DB5
:1046D0008D8D8D8D8D8D8D8D8DADADADADADADAD2A
:1046E000ADADAD4500000000040525050505000041
:1046F00000000004040000000004000091918D8D72
:104700008D6D6D6D6D6D6D694949696969696D6D15
:104710006D696D6D6D6D6D6D6D6D6D6D69696D6DD5
:104720008D92928D6D696D8D92B2B2B2B29292926B
:10473000B696726D6D92927292B7DBDBDFDFDFDBD4
:10474000DBDBFFFFDBDBDBDFFFFFFFFFB2B18D8DCC
:104750008D8D6D6D6D6D6D6D4949696969696D6DA1
:104760006D6D6D6D6D6D6D6D6D6D69696D6D6D8D61
:104770008D92928D6D696D9292B2B2B2928E92923A
:10478000B6926E6D6D6E6E72B6DBDFFFDFDFDFDB64
:10479000DBDBDBDFDBDBDBDFFFFFFFFFB1B1918DBD
:1047A0008D8D6D6D6D6D6D6D6969696969696D6D11
:1047B0006D6D6D6D6D6D6D696D6969696D6D6D6D39
:1047C0008D928D8D6D6D6D9292B2B2928E6D929230
:1047D000926E6D49496D7292DBDFFFFFDFDFDBDB3D
:1047E000DBD7DBDBDBDBDBDFFFFFFFFF91B1B19171
:1047F0008D8D6D6D6D6D6D6D6969694969696D6DE1
:104800006D6D6D6D696D6D69696969696D6D6D6DF0
:104810008D8D8D6D6D6D6D92929292926D8E929244
:10482000926D49496E9292B6DBDFFFFFFFDFDBDB63
:10483000B7DBDBDBBBDBDBDFFFFFFFFF91B1B1B140
:104840008D8D8D6D6D6D6D6D6969696949696D6D70
:104850006D6D6D6D69696D6D6D69696D6D6D6D6D98
:104860006D6D6D6D6D6D6D929292926D6D92929275
:10487000926D4992B6B7BBB7DBDBFFFFDFDBDBDB5B
:10488000B7B7B7DBDBDBDFFFFFFFFFFF9191B1B114
:10489000918D8D8D6D6D6D6D69696969696D6D6DD8
:1048A0006D6D6D6D6969696D6D6D6D6D6D8D8D6D04
:1048B0006D6D6D6D6D6D6D8E9292926D6D92929229
:1048C0006E496DB6B7DBDBDBDBDBDBDBDBBBB7B657
:1048D000B6D7DBDBDBDBFFFFFFFFFFFF91B1B1B141
:1048E000B1918D8D8D8D6D6D69696969696D6D6D24
:1048F0006D6D6D6D6D6D696D6D6D6D6D8D8D6D6DAC
:104900006D696D8D8D8D8D8E9292926D6D9292925C
:104910006D6D6DB6DBDBDBDBDBDBDBDBBBB6B6B6E5
:10492000B6B6DBDBDBFFFFFFFFFFFFFF91B1B1B1ED
:10493000B1B1918D8D8D8D6D6D69696D6D6D6D6D83
:104940006D6D6D6D6D6D69696D8D8D8D8D8D6D6DFF
:1049500069696D8D8D8D8D92B2B6B26D6D8D928DB2
:104960006D6D6D92B6DBDBDBFFFFDBDBDBDBDBD70B
:10497000D7B6D7DBFFFFFFFFFFFFFFFF8D91B1B180
:10498000B1B1918D8D8D8D8D6D6D696D6D6D6D6D0F
:104990006D6D6D8D6D6D6D6D6D8D8D8D8D8D6D6D87
:1049A0006D6D6D8D8D8D8D92B6B6B68E6D6D8D9152
:1049B000916D6D6DB6DBDBFFFFFFDFDBDBDBDBDB90
:1049C000DBDBDBFFFFFFFFFFFFFFFFFF8D8DB1B1E3
:1049D000B18D9191919191916D6D6D6D6D6D6D6DCB
:1049E000696D6D8D8D6D6D6D6D8D8D8D8D6D6D6D3B
:1049F0006D6D8D8D919191B2B6B6B6926D6D9191AE
:104A0000916D6D91B6DBDBFFDFDBDBDBDBDFDBDB5F
:104A1000DBFBFFFFFFFFFFFFFFFFFFFF8D91B1B14A
:104A200091919191919191918D6D6D696D6D6D6D7A
:104A300069696D6D6D6D6D69698D8D8D92B2B28D87
:104A40008D92B292B29291B2B6B6B28D6D6D8D8DDD
:104A50008D6D6D92B6DADBDBDBDBDBDBDBDBFFFFF7
:104A6000FFFFFFFFFFFFFFFFFFFFFFFF8D8D919116
:104A700091919191919191918D8D6D6969696D6916
:104A800069696D6D8D8D6D6D496DB2B2918D6D8D54
:104A9000918D8D6D8D92919192B2928D8D8D8D8D26
:104AA0008D6D6D92B6DADADADADADBDBDFDBFFFFA7
:104AB000FFFFFFFFFFFFFFFFFFFFFFFF8D8D8D8DCE
:104AC000919191919191919191918D6D696969699E
:104AD0006969696D6D6D6D6D92B2926D484844441F
:104AE00020446944248D928D8D918D8D8D8D8D8D79
:104AF0008D8D91B2B6B6B6B6B6D6DBDBDBFFFFFF67
:104B0000FFFFFFFFFFFFFFFFFFFFFFFF8D8D8D8D7D
:104B10008D8D9191919191919191916D6D6969694D
:104B200069696D696D6D8DB68D6D69446D69694496
:104B300044444469698D8D8D91918D8D6D8D8D8DE0
:104B40008D91B2B6B6B6B6B6B6B6DADBFFFFFFFFEA
:104B5000FFFFFFFFFFFFFFFFFFFFFFFF8D8D8D8D2D
:104B60008D8D9191919191919191918D6D696969DD
:104B70006D6D6D6D6D92B68D6D496DB2B26968687F
:104B800044444444698D69698DB28D6D6D8D8D8D00
:104B900091B2B2B6B6B6B6B2B6B6B6DBFFFFFFFF9D
:104BA000FFFFFFFFFFFFFFFFFFFFFFFF8D8D8D8DDD
:104BB0008D8D9191919191919191918D6D6D696989
:104BC0006D6D8D6D91D6B66D6948B28D696844443E
:104BD0004468698D8D896968448D8D6D8D8D8D8D4D
:104BE000B1B2B2B6B6B6B6B6B6B6DAFFFFFFFFFFE1
:104BF000FFFFFFFFFFFFFFFFFFFFFFFF8D8D6D8DAD
:104C00008D8D919191919191919191918D8D6D6DEC
:104C10006D6D8D91D6D68D69448D8D444444446824
:104C2000698DB18D8D6844442068698D8D8D8D911D
:104C3000B1B2B6B6B6B6B6B2B2D6FFFFFFFFFFFF4F
:104C4000FFFFFFFFFFFFFFFFFFFFFFFF6D6D6D6DBC
:104C50008D8D8D919191919191919191918D6D6D9C
:104C60006D6D6DB6DAB24469696944446864898DD2
:104C7000ADB1AD8D686868684444448D918D8D9167
:104C8000B1B2B6B6B6B2B6B2D6FFFFFFFFFFFFFFB6
:104C9000FFFFFFFFFFFFFFFFFFFFFFFF6D6D6D8D4C
:104CA0008D8D8D8D9191919191919191918D8D6D30
:104CB0006D698DFBD6B144688D64688D8DADB1D2C0
:104CC000D2B1B1B1ADADADADAD6444448D8D8D8D7E
:104CD00091B2B2B6B2B2B2DAFFFFFFFFFFFFFFFF41
:104CE000FFFFFFFFFFFFFFFFFFFFFFFF6D6D6D8DFC
:104CF0008D918D8D918D9191919191919191916DD8
:104D00006D698DD6D6B28989898DB1D6D6B1B1D229
:104D1000D6D1D1D1D1ADADADAD696844688D8D919D
:104D2000B1B2B2B2B2B2DAFFFFFFFFFFFFFFFFFF87
:104D3000FFFFFFFFFFFFFFFFFFFFFFFF6D6D8D8D8B
:104D400091919191918D8D91919191919191918D5F
:104D50006D6991B2B2D2D2D2B1B1D2F6F6F6D2D258
:104D6000D6D6D2D2D1ADADAD8D89644444698D9192
:104D7000B191B2B2B2DBFFFFFFFFFFFFFFFFFFFF0A
:104D8000FFFFFFFFFFFFFFFFFFFFFFFF8D8D9191F3
:104D900091919191918D8D9191B191919191918DEF
:104DA0006D69B291B2D6FAF6F6D6D6FAFAF6F6D61A
:104DB000F6D6D2D1ADADADAD8D8968444469B1B1FF
:104DC000B2B292B6DBFFFFFFFFFFFFFFFFFFFFFF67
:104DD000FFFFFFFFFFFFFFFFFFFFFFFF8D8D9191A3
:104DE0008D919191918D9191919191919191918DBF
:104DF0006D6DB1B6D6FBFBFBFAFAFAFBFBFAF6F6E1
:104E0000F6D2D2B1ADADAD8D8D8964444469B1B2F5
:104E1000B2B2B6DBFFFFFFFFFFFFFFFFFFFFFFFFA9
:104E2000FFFFFFFFFFFFFFFFFFFFFFDB918D918D76
:104E30008D91919191919191919191919191919166
:104E40008D8DB2FBFBFBFBFBFBFBFBFBFAFAFAF6DF
:104E5000D6D2D2B1ADADAD8D8D89644444448DB60A
:104E600092B6DBFFFFFFFFFFFFFFFFFFFFFFFFFF2C
:104E7000FFFFFFFFFFFFFFFFFFFFB6928D8D8D8DC0
:104E80008D9191919191919191919191B1919191F6
:104E9000918DB6FBFBFBFBFBFBFBFBFBFAF6F6F68F
:104EA000D6D6D2B1B1ADADAD8D89644444446D92D6
:104EB000B6DBFFFFFFFFFFFFFFFFFFFFFFFFFFFF6F
:104EC000FFFFFFFFFFFFFFFFDBB6926D8D8D8D8D26
:104ED0008D8D91918D8D919191919191B1B1919192
:104EE0009191D6FBFBFBFBFBFBFBFBFBFBFAF6F616
:104EF000F6D6D2D1B1ADADAD8989694444486DB61D
:104F0000FFFFFFFFFFFFFFFFFFFFFFFFFFFFFFFFB1
:104F1000FFFFFFFFFFFFFFDBB6926D498D8D8D8D8B
:104F20008D8D8D8D8D8D919191919191B1B1919149
:104F30009191B2FBFBFBFBFBFBFBFBFAFAFBF6F6EA
:104F4000D6D6D2D1D1B1B1AD8D89896469446DFF16
:104F5000FFFFFFFFFFFFFFFFFFFFFFFFFFFFFFFF61
:104F6000FFFFFFFFFFFFDBB6726D49696D6D6D8D51
:104F70008D8D8D8D8D8D919191919191B1B1918DFD
:104F80008D91B2FBFBFBFBFBFBFBFAFAFAFAF6D6C0
:104F9000D6D2D2D2D2D2D1AD8D898D6944486DFF9F
:104FA000FFFFFFFFFFFFFFFFFFFFFFFFFFFFFFFF11
:104FB000FFFFFFFFFFDB926D6D696D696D6D6D8D9C
:104FC0008D6D6D6D6D6D8D9191919191B1B1918D51
:104FD0008D8DB2FBFBFBFBFBFAF6F6D6F6D6F6D6CA
:104FE000D6D6D2D2B1ADAD8D8D8D8D8968448DFF71
:104FF000FFFFFFFFFFFFFFFFFFFFFFFFFFFFFFFFC1
:10500000FFFFFFFFDBB66E6D496D69496D6D6D8DFC
:105010008D8D6D6D6D6D8D9191919191919191911C
:105020009191B1FAFFFFFBFBF6F6F6D2D6D2D6B1DC
:10503000AD8D89B1D2B18D88898D8D89686489D211
:105040008DFFFFFFFFFFFFFFFFFFFFFFFFFFFFFFE2
:10505000FFFFFFDB926D6949696949496D6D6D8D8F
:105060008D8D8D6D6D6D6D9191918D9191919191D0
:10507000919191FBFBFAD6D2B1D1D1D1D2D1AD89E8
:105080008989898D8D8D8D89898D8D8D68686889D7
:1050900064D6FFFFFFFFFFFFFFFFFFFFFFFFFFFFE4
:1050A000FFFFB7926D6D69696D49496D8D8D8D8D6D
:1050B0008D91916D6D6D6D8D918D8D8D9191B19164
:1050C00091918DDAFAFAD6AD8DAD8DD2FBD289648D
:1050D0008964896420446468888D8D8D88688964BA
:1050E000698DFFFFFFFFFFFFFFFFFFFFFFFFFFFFD8
:1050F000DBD7B66D496D69494949496D8D6D6D6D57
:105100006D91918D6D6D6D6D8D6D8D919191919173
:105110009191B6FAFA91694444698DF6FBD68D896E
:105120008D8DB2B18DAD89898DADAD8D6868898960
:10513000698DFFFFFFFFFFFFFFFFFFFFFFFFFFFF87
:10514000B6B66D496D6D4949496D6D6D8D8D6D6D4D
:105150006D6D6D6D6D6D6D6D6D6D8D9191919191AB
:105160008D8DD6FBB6B2B2698DADF6F6FBD2ADAD84
:10517000B1D2D2B2AD8D8DB1ADADAD8D898988ADD5
:10518000898DFFFFFFFFFFFFFFFFFFFFFFFFDFB680
:10519000926D49696D6D6D6D6D6D6D6D918D6D6DFE
:1051A0006D6D6D6D6D6D6D6D6D6D6D8D8D91919183
:1051B000918DB6FBDAFBFBD6B2B2F6FBFAB18DAD40
:1051C000B1D6D2D6B2B1B1D1B1ADAD8989AD64A9F4
:1051D00089B2FFFFFFFFFFFFFFFFFFFFFFFFB69258
:1051E0006D496D6D49696D6D6D6D6D6D92918D8DB2
:1051F0006D6D6D6D69696D6D6D6D6D6D6D6D8D91A3
:10520000918DB2FBFFFBD6D2D2FBFBFBFAB18DAD89
:10521000B1D2D6F6F6F6F6D1ADADAD898D89AD89B0
:1052200089B2FFFFFFFFFFFFFFFFFFFFDB966E6D01
:105230004D6D49496D69496D6D6D6D6DB29191917D
:105240008D6D6D6D6D496969696969696D6D6D8D8A
:10525000918DB2FBFBFBFBFBFBFBFBFBFAD2ADAD85
:10526000ADD2F6F6F6F6D2D1ADADAD8989AD88896D
:1052700089B2FFFFFFFFFFFFFFFFFFDB966E6D4967
:105280006D4949496D6D6D6D6D6D6D6DB292918D0C
:10529000918D6D6D6D4D496969494848496D6D6DD8
:1052A0008D8DB2FBFBFBFBFBFBFBFBFBFBD2AD895C
:1052B00089ADD6F6F6D2D2D1ADAD898989898989F1
:1052C00069DBFFFFFFFFFFFFFFFFDB926E49496DC8
:1052D0006D4949496D696D6D6D6D6D6DB2918D8DC5
:1052E00091918D6D6D6D494969494848496D6D6D64
:1052F0006D6D91FBFBFBFBFBFBD6F6FBF6D1ADAD79
:10530000AD8DD2D2F6D2D1B1ADAD8989898DAD89BD
:1053100089FFFFFFFFFFFFFFFFDB926E4D49494D05
:105320006D6D49696D6D6D6D6D6D6D6D91918D8D4D
:105330008D91918D6D6D6D49494949496D6D6D6DC9
:105340006D6D8DFBFBFBFBFBD2D2FAB2D2896060A4
:105350008888B1B1D2D2D1ADAD8989898989AD8929
:10536000D6FFFFFFFFFFFFFFB7926E4D4949494946
:105370006D6D6D6D6D6D6D6D6D6D6D6D918D8D91D5
:10538000919191918D6D6D4D49496D6D6D91919199
:105390008D6D6DD6FBFBFAD6B2F6B2448D8964648E
:1053A000648DADB1D1ADADAD898989898969698DCA
:1053B000FFFFFFFFFFFFFFBB926E6D49494949495F
:1053C0006D6D6D6D6D6D6D6D6D6D6D6DB19191B13D
:1053D000B1B1B1B1918D6D6D6D6D6D6D9191919119
:1053E000918D6D8DFBFAFAD2B2FAFBF6D6ADADAD6A
:1053F000ADAD8DADB1B1ADAD8989898989B1FBFF05
:10540000FFFFFFFFFFFFB7B6926D49494949494980
:105410006D6D6D6D6D6D6D6D6D6D6D6DB1B1B1B1AC
:10542000B1B1B5B59191716D6D6D6D6D9191B2B177
:10543000918D6D6DFBD6D6B2D6FBFBFBF6D2D2D2E8
:10544000D2D2ADADADB1ADAD8D898989898DFFFF6A
:10545000FFFFFFFFFFB696926D49494949494D6DDF
:105460006D6D6D6D6D6D6D6D6D6D6D6DB6B1B1B553
:10547000B5B5B595917171717171719191B2B2B209
:10548000916D6D6DB6FBD6D6F6FBFBFBF6F6D2AD95
:105490008989686489ADB1D18D898989898DFFFF3A
:1054A000FFFFFFFFB6926D6D49494949494D4D6D6A
:1054B0006D6D6D6D6D6D6D6D6D6D6D6DB5B1B1B108
:1054C000B5B5959191717171717171919192B2B1FE
:1054D000918D6D6D91FBD6F6FBD6D2B28D89646449
:1054E0006464646489B1D1AD89898989898DFFFF3C
:1054F000FFFFFFB6B66D6D49494949494D4D4D6DA8
:105500006D6D6D6D6D6D6D6D6D6D6D6DB1B1B1B1BB
:10551000B191917171515151717171719191B291BA
:1055200091916D6D6DFBFBFAD6ADB1B2D2D2F6D2D0
:10553000AD8989ADADD1B18D89898969698DFBFF4F
:10554000FFDBB6926D6D6D6D4949494D4D4D6D6DE9
:105550006D6D6D6D6D6D6D6D6D6D6D6DB1B1B1B16B
:10556000919191714D4D4D4D515171719191929219
:1055700091716D6D6DD6FBFAF6F6FBF6D2D2AD8960
:105580008988898DADB1AD8989898968698DFBFF6D
:10559000DBB6926D6D6D49494949494D4D4D6D6D73
:1055A0006D6D6D6D6D6D6D6D6D6D6D6D919191919B
:1055B000919171714D4D4D4D4D4D4D717191929136
:1055C00091716D6D6DB2FBD6F6FAFAF6D2AD8D899A
:1055D000ADADADADADAD8D8989696968698DFBDB18
:1055E000B6926D6D6D6D496D6D49494D4D4D6D6D49
:1055F0006D6D6D6D6D6D6D6D6D6D6D6D919191914B
:105600009191716D4D4D4D4D4D4D4D4D717191912E
:10561000916D6D6D6D91D6D6F6FBFBFAFAF6F6D26A
:10562000D2D1D1ADAD8D898989696868898DDBB6A4
:10563000926D6D6D6969696D6D494D4D4D6D6D6D05
:105640006D6D6D6D6D6D6D6D6D6D6D6D716D6D6D86
:10565000716D6D4D4D4D4D4D4D4D4D4D4D6D6D6DB6
:105660006D6D6D6D6D92FBD6D6FBFBFBFAF6F6D237
:10567000D2D2D2AD8D898989896464688989B291D1
:105680006D696D6D49496D6D6D6D6D6D6D6D6D6D96
:105690006D6D6D6D6D6D6D6D6D6D6D6D4D4D4D4DBA
:1056A0004D4D4D4D4D4D4D4D4D4D4D4D4D4D4D6D0A
:1056B0006D6D726D96DFFFDBDAFBFBFBFAF6D2D67F
:1056C000D2D1AD8D898989696864648889898D8D15
:1056D0006D6D696969696D6D6D6D6D6D6D6D6D6D0A
:1056E0006D6D6D6D6D6D6D6D6D6D6D6D494D4D4972
:1056F000494949494949494D4D4D4D4D4949494D02
:105700006D6D6D96DFFFFFFFFBDAFBD6D6D6B2D20A
:10571000B2ADAD89696869646464688988898D6D92
:105720006D69696969696D6D6D6D6D6D6D6D6D6DBD
:10573000696D6D6D6D6D6D6D6D6D6D6D29282829AF
:1057400049494929292828494D4D4D4D494949493B
:105750006D6D96DFFFFFFFFFFFFBD6D6D6B2AD8D96
:10576000AD8D8969696968646468898888898D8D67
:1057700069696D69696D6D6D6D6D6D6D6D6D6D6D69
:105780006D6D6D6D6D696D6D6D6D6D6D4C484848DD
:10579000494948494949494D4D4D4D4D4D49494D5E
:1057A0006DB6FFFFFFFFFFFFFFFFDBB28D8D898925
:1057B0008989898969686868698989898989898DF8
:1057C0008D696D6D6D6D6D6D6D6D6D6D6D6D6D6DED
:1057D0006D6D6D6D6D6D6D6D6D696D6D4C4D6D6D3E
:1057E0006D6D6D4D4D49494D4D4D4D4D4D4D4D4D91
:1057F000B6FFFFFFFFFFFFFFFFFFFBDBB28D8D8DCD
:105800008D898969696869898989898989898D8D7D
:105810008D916D6D6D6D6E6D6D6D6D6D6D6D6D6D73
:105820006D6D6D6D6D6D6D6D6D69696D9191919120
:10583000919191716D6D4D6D6D6D716D716D6DB6F7
:10584000FFFFFFFFFFFFFFFFFFFFFFFBFBB2B18D7D
:105850008D898969696989898989898989898D8D0C
:105860008DADB26D456E8E8E6D6D6D4D6D6D6D6DC8
:105870006D6D6D69696D6D6D6D6D6969B59191B590
:10588000B5B5B59591919191717195959596BAFF30
:10589000FFFFFFFFFFFFFFFFFFFFFFFBFBFBD6B29A
:1058A000AD8D89896969898D8D898989898D8DAD4C
:1058B000AD8DB2692025496E6E6D4D494D6D4D4DD2
:1058C0006D6D4949496D6D6D6D6D6D6DB5B5B5B554
:1058D000B6B6B6B6B5B5959595959696BADFFFFF6F
:1058E000FFFFFFFFFFFFFFFFFFFFDBFBFBFBD6B26E
:1058F000B2AD8D8D898D8D8D8D8D898D8D8D8DAD7B
:10590000ADB18D20202520456D6D6D4D494D4D4D1E
:105910006D6D4D496D6D6D69696D6D6DB5B5B5B5E3
:10592000D6DADAB6B6B6BAB595B6BABADFFFFFFFC1
:10593000FFFFFFFFFFFFFFFBD78E69B2FBFBD6D651
:10594000D2B18D8DADADADAD8D8DADADAD8DADADFE
:10595000B1B24420202020204545696D4949496D58
:105960006D6D49696D6D49496969696DB5B5B5B5C3
:10597000B6B6B6B6B6B6B6B9B6B6BADFFFFFFFFF73
:10598000FFFFFFFFFFDBB26E6A8E6949FFFBFBD6AC
:10599000D6B1ADADADB1B1ADADADADADAD8DADB11E
:1059A000D66920202020204145454549696969691B
:1059B0006D6D6D69496949496949496DB5B5B5B5B7
:1059C000B5B5B5B5B5B5B5B595BADFFFFFFFFFFF06
:1059D000FFFFFFDB926E8E8E6A8E2049FBFBDAD6CC
:1059E000B2ADADB1B1B2B2B1ADADB1ADADB1ADD69B
:1059F000AD20202020204141414545696969696900
:105A00006D6D6969696949496949696D95959595AA
:105A10009595959595959596BADFFFFFFFFFFFFF4A
:105A2000FFB78E6A6A6A6A6A6A692069FFFBFBD6F9
:105A3000B2B2B2D2D6D2B1B1B1B1B1B1ADADD2B2D2
:105A4000404420202141414545454545454569693A
:105A500069696D69696949496D6D6D6D9595959532
:105A600095959595959596B6DFFFFFFFFFFFFFB2E1
:105A700069696A6A6A6A6A8A6A6920D6FFFBFBDA20
:105A8000D6D6D6F6D6D2B1B1B1B1B1ADB1D2D2443B
:105A90004420202141414145454545454545454531
:105AA00045454569696949696D6D6D6D9595959532
:105AB000959595959696BADFFFFFFFFFFFFF9269D8
:105AC000696A6A6A6A6A6A6A8A6920FBFBFBFBFA8E
:105AD000FAD6F6FAD6D2B1B1D2D2B2B2B28E402054
